:020000040800F2
:1000000000000120E1140008191300081F13000864
:10001000251300082B13000831130008000000000E
:10002000000000000000000000000000371300087E
:100030004513000800000000531300086113000876
:100040003115000831150008311500083115000878
:100050003115000831150008311500083115000868
:100060003115000831150008311500083115000858
:100070003115000831150008311500083115000848
:100080003115000831150008311500080000000086
:100090000000000000000000000000003115000812
:1000A0003115000831150008311500083115000818
:1000B0003115000831150008311500083115000808
:1000C00031150008311500083115000831150008F8
:1000D0003115000831150008311500080000000036
:1000E0003115000831150008311500080000000026
:1000F00000000000000000000000000031150008B2
:100100000000000031150008311500083115000805
:1001100000000000000000000000000000000000DF
:100120003115000831150008311500083115000897
:100130003115000800000000000000000000000071
:100140000000000000000000000000003115000861
:100150003115000831150008311500083115000867
:1001600031150008311500080000000000000000F3
:10017000000000000000000000000000000000007F
:100180000000000031150008000000000000000021
:04019000311500081D
:1001A00010B5054C237833B9044B13B10448AFF3B1
:1001B00000800123237010BD6800002000000000B3
:1001C0003441000808B5034B1BB103490348AFF3A2
:1001D000008008BD000000006C00002034410008D1
:1001E00001F0FF01102A2BDB10F0070F08D010F8E8
:1001F000013B013A8B422DD010F0070F42B3F6D1EC
:10020000F0B441EA012141EA014122F007047FF004
:1002100000070023F0E80256083C85EA010586EA5B
:10022000010685FA47F5A3FA87F586FA47F6A5FA97
:1002300087F68EB9EED1F0BC01F0FF0102F00702A3
:1002400032B110F8013B013A83EA010313B1F8D14E
:100250000020704701387047002D06BF354603382F
:10026000073815F0010F07D1013015F4807F02BF68
:10027000013015F4C03F0130F0BC0138704700BFB9
:1002800053B94AB9002908BF00281CBF4FF0FF31FD
:100290004FF0FF3000F070B9ADF1080C6DE904CEFD
:1002A00000F006F8DDF804E0DDE9022304B0704751
:1002B0002DE9F047089E0D4604460F46002B4AD113
:1002C0008A42944665D9B2FA82F343B102FA03FC3A
:1002D000C3F120029F4020FA02F217439C404FEAEC
:1002E0001C4E1FFA8CF5B7FBFEF1220C0EFB1177AA
:1002F00042EA074201FB05F090420AD91CEB0202D8
:1003000001F1FF3780F01C81904240F219810239DF
:100310006244121AA4B2B2FBFEF00EFB102244EAB1
:10032000024400FB05F5A5420AD91CEB040400F1C8
:10033000FF3280F00781A54240F204816444023814
:1003400040EA0140641B00211EB1DC400023C6E9E5
:100350000043BDE8F0878B4208D9002E00F0ED8005
:100360000021C6E900050846BDE8F087B3FA83F12D
:10037000002949D1AB4202D3824200F2F880841AAC
:1003800065EB030201201746002EE2D0C6E90047C4
:10039000DFE702B9FFDEB2FA82F3002B40F0908073
:1003A0008A1A4FEA1C471FFA8CFE0121B2FBF7F5AF
:1003B00007FB1520220C42EA00420EFB05F090429A
:1003C00008D91CEB020205F1FF3802D2904200F27C
:1003D000CB804546121AA4B2B2FBF7F007FB1022FD
:1003E00044EA02440EFB00FEA64508D91CEB0404B7
:1003F00000F1FF3202D2A64500F2BB801046A4EB0A
:100400000E0440EA05409FE7C1F120078B4022FA25
:1004100007FC4CEA030C05FA01F420FA07F3FD404F
:100420004FEA1C492343B5FBF9F81FFA8CFE09FB80
:1004300018551C0C44EA054408FB0EF5A54202FAC7
:1004400001F200FA01F00BD91CEB040408F1FF3AA9
:1004500080F08880A54240F28580A8F102086444BB
:10046000641B9DB2B4FBF9F309FB134445EA044451
:1004700003FB0EFEA64508D91CEB040403F1FF356F
:100480006CD2A6456AD9023B644443EA0843A3FB05
:100490000295A4EB0E04AC42C846AE4656D353D0E8
:1004A00056B1B0EB080264EB0E0404FA07F7CA4039
:1004B000CC401743C6E9007418460021BDE8F08718
:1004C000C3F1200102FA03FC20FA01F225FA01F13E
:1004D0009D402A434FEA1C471FFA8CFEB1FBF7F000
:1004E00007FB1015110C41EA054100FB0EF58D428A
:1004F00004FA03F408D91CEB010100F1FF382FD2F4
:100500008D422DD902386144491B92B2B1FBF7F5F7
:1005100007FB151142EA014205FB0EF1914208D991
:100520001CEB020205F1FF3816D2914214D9023DAC
:100530006244521A45EA004138E73146304608E73E
:100540003946E6E61046FBE64845A9D2B9EB020873
:1005500065EB0C0E013BA3E74546EAE72B4694E723
:100560004046D1E7D0467BE7023D624432E7084689
:100570000AE76444023842E7704700BF80B584B0A0
:1005800000AF0346FB710023BB81CD233B73FB7996
:100590007B7307F10C030221184600F055F800BFE9
:1005A0001037BD4680BD80B582B000AFAB23FB7174
:1005B000FB1D0121184600F047F800BF0837BD4673
:1005C00080BD000080B588B000AFF860B9607A6087
:1005D0000023FB770023BB610023FB7500233B61F5
:1005E0000023FB750FE0FB7DFA6813441B783B6129
:1005F00007F1100301221946124801F00EF9B86103
:10060000FB7D0133FB75FB7DBA689A42EBD80D4B3D
:100610001B689A680B4B1B6842F001029A607A686B
:10062000BB699A4202D10123FB7705E07A68BB6976
:100630009A4201D00023FB77FB7F18462037BD4646
:1006400080BD00BF4C01002080B582B000AF786053
:1006500039603B689AB24FF0FF337968034802F083
:10066000AEFC00BF0837BD4680BD00BF580100206A
:1006700080B485B000AF78600023FB737B68B3F172
:10068000005F06D37B680D4A934202D80123FB73B7
:100690000CE07B68B3F1006F06D37B68084A934295
:1006A00002D80123FB7301E00023FB73FB7B184698
:1006B0001437BD465DF8047B704700BF0000012081
:1006C0000000040880B58AB000AF03460A46FB71FB
:1006D0001346BB71002387F82730002387F82630A4
:1006E0000023FB60BB79062B03D9002387F8273052
:1006F0003DE0FB79052B02D9FB79FF2B34D1FB7947
:10070000FF2B02D101233B6112E0FB79C3F1060309
:1007100087F82630BA7997F826309A4202D997F8A6
:100720002630BB7100233B61FB79BB61BB79FB6168
:1007300001237B6102233B6201F0EEF807F10C021A
:1007400007F110031146184601F098FAFB68B3F15F
:10075000FF3F03D1032387F8273002E0022387F805
:10076000273001F0FBF802E0002387F8273097F8E4
:10077000273018462837BD4680BDB0B586B000AFDB
:10078000F860B9601346FB800123FB750023BB753D
:100790000023BB8201F0C0F80346FB75FB7D002BF4
:1007A00002D00023BB7523E00023BB821CE0BA8A81
:1007B000BB68D118BB8AFA6813441B78DBB20022ED
:1007C0001C46154622462B46002001F051F80346F0
:1007D000FB75FB7D002B02D00023BB7508E00123D5
:1007E000BB75BB8A0133BB82BA8AFB889A42DED3CF
:1007F000BB7D012B0ED1FB7D002B0BD101F0AEF8A0
:100800000346FB75FB7D002B02D00023BB7501E086
:100810000123BB75BB7D18461837BD46B0BD00002F
:1008200080B582B000AF084B1B687B607B683B6083
:10083000064B074A9A6002F0A7FA3B68984700BF48
:100840000837BD4680BD00BF0480000800ED00E011
:100850000080000880B588B000AF3B1D184601F04D
:10086000EBFA7B69DBB218462037BD4680BD80B508
:100870008AB000AF7860012387F82630002387F81C
:10088000273001F07BF8034687F8263097F82630AA
:10089000002B03D0002387F827303CE00223BB6005
:1008A00001237B617B68BB6107F10803184601F0F7
:1008B00055FA034687F8263097F82630002B08D0E3
:1008C00001F078F8034687F82630002387F82730B0
:1008D00021E001F07FF8034687F8263097F82630AC
:1008E000002B08D001F066F8034687F82630002375
:1008F00087F827300FE001F05DF8034687F82630CF
:1009000097F82630002B03D0002387F8273002E029
:10091000012387F8273097F8273018462837BD4637
:1009200080BD80B58AB000AF03460A46FB7113460E
:10093000BB71012387F82630002387F8273001F0A8
:100940001DF8034687F8263097F82630002B03D091
:10095000002387F8273041E00123BB6001237B613E
:10096000BB79012202FA03F33B61FB79FB6007F1DB
:100970000803184601F0F2F9034687F8263097F885
:100980002630002B08D001F015F8034687F82630F2
:10099000002387F8273021E001F01CF8034687F890
:1009A000263097F82630002B08D001F003F80346D4
:1009B00087F82630002387F827300FE000F0FAFF91
:1009C000034687F8263097F82630002B03D0002303
:1009D00087F8273002E0012387F8273097F827307F
:1009E00018462837BD4680BD80B58AB000AF0346A3
:1009F000FB710123FB6007F10C03184601F01CFAA0
:100A00007A69FB7922FA03F303F00103002B0CBF90
:100A100001230023DBB218462837BD4680BD000005
:100A200080B586B000AF7860154BFB600023FB8279
:100A300000233B617B681B789BB20133FB82FB8AFE
:100A4000043B7A6813441B683B61FB8A043B3A69A8
:100A500019467868FFF7B6FD0346012B09D104203B
:100A6000FFF78CFD07F10C0304211846FFF7ECFD9E
:100A700001E0FFF798FD00BF1837BD4680BD00BFFD
:100A80006401020080B584B000AF78600023FB8170
:100A90000023BB607B681B789BB20133FB81FB8921
:100AA000043B7A6813441B68BB60FB89043BBA684B
:100AB00019467868FFF786FD0346012B07D10B2006
:100AC000FFF75CFD0B210548FFF7BEFD01E0FFF7D6
:100AD0006AFD00BF1037BD4680BD00BF000000208A
:100AE00080B586B000AF78600023FB8200233B61B5
:100AF0000023FB817B681B789BB20133FB82FB8A5E
:100B0000043B7A6813441B683B61104B1B689BB223
:100B1000C3F30B039BB2FB81FB8A043B3A69194682
:100B20007868FFF74FFD0346012B09D10220FFF73C
:100B300025FD07F10E0302211846FFF785FD01E0B0
:100B4000FFF731FD00BF1837BD4680BD002004E02F
:100B500080B588B000AF78600023FB830023BB61C1
:100B600000237B610023FB7300233B617B681B78C0
:100B70009BB20133FB83FB8B043B7A6813441B68F5
:100B8000BB61FB8B043BBA6919467868FFF71AFD15
:100B90000346012B21D10120FFF7F0FC7B68D3F83D
:100BA00002307B617869FFF763FD0346FB73FB7BD3
:100BB000012B0BD107F10F0301211846FFF744FD6C
:100BC0007B6901333B613B69984708E007F10F03FC
:100BD00001211846FFF738FD01E0FFF7E4FC00BFF4
:100BE0002037BD4680BD80B586B000AF7860002359
:100BF000FB8200233B610023FB737B681B789BB265
:100C00000133FB82FB8A043B7A6813441B683B6117
:100C1000FB8A043B3A6919467868FFF7D3FC034620
:100C2000012B1FD10120FFF7A9FC7B6802331A7842
:100C30007B6803331B7819461046FFF743FD0346D4
:100C4000FB73FB7B032B06D107F10F030121184631
:100C5000FFF7FAFC08E007F10F0301211846FFF740
:100C6000F3FC01E0FFF79FFC00BF1837BD4680BDD5
:100C700080B586B000AF78600023FB8200233B6123
:100C80000023FB600023FB720023BB7200237B72F6
:100C90007B681B789BB20133FB82FB8A043B7A683A
:100CA00013441B683B61FB8A043B3A691946786828
:100CB000FFF788FC0346012B35D10120FFF75EFCCE
:100CC0007B68D3F80230FB607B689B79FB72F86825
:100CD000FFF7CEFC0346BB72BB7A012B1AD17B68AF
:100CE0000733FA7A92B2F9681846FFF746FD0346D1
:100CF0007B727B7A012B06D107F10903012118468B
:100D0000FFF7A2FC11E007F1090301211846FFF7E4
:100D10009BFC0AE00023BB7207F10A03012118467D
:100D2000FFF792FC01E0FFF73EFC00BF1837BD461D
:100D300080BD80B586B000AF78600023FB820023C1
:100D40003B610023FB737B681B789BB20133FB8202
:100D5000FB8A043B7A6813441B683B61FB8A043BB3
:100D60003A6919467868FFF72DFC0346012B0DD12F
:100D70000120FFF703FCFFF76DFD0346FB7307F14E
:100D80000F0301211846FFF75FFC01E0FFF70BFCA2
:100D900000BF1837BD4680BD80B586B000AF786013
:100DA0000023BB8200233B610023FB730023FB7500
:100DB0007B681B789BB20133BB82BB8A043B7A6899
:100DC00013441B683B61BB8A043B3A691946786847
:100DD000FFF7F8FB0346012B26D10120FFF7CEFBDE
:100DE0007B689B78FB75FB7D022B02D0FB7DCC2BB7
:100DF00002D10023FB7310E0FB7D002B02D1AA235C
:100E0000FB7504E0FB7D012B01D15523FB75FB7DB8
:100E10001846FFF72CFD0346FB7307F10F03012172
:100E20001846FFF711FC01E0FFF7BDFB00BF1837C4
:100E3000BD4680BD80B586B000AF78600023FB82E0
:100E400000233B610023FB730023BB7300237B73F0
:100E50007B681B789BB20133FB82FB8A043B7A6878
:100E600013441B683B61FB8A043B3A691946786866
:100E7000FFF7A8FB0346012B17D17B68DB78FB73D8
:100E80007B689B78BB73BA7BFB7B11461846FFF7E8
:100E900048FD03467B730120FFF770FB07F10D034C
:100EA00001211846FFF7D0FB01E0FFF77CFB00BFF4
:100EB0001837BD4680BD80B586B000AF786000238E
:100EC000FB8200233B610023BB730023FB737B6821
:100ED0001B789BB20133FB82FB8A043B7A68134484
:100EE0001B683B61FB8A043B3A6919467868FFF747
:100EF00069FB0346012B12D17B689B78FB73FB7B5C
:100F00001846FFF771FD0346BB730120FFF736FB60
:100F100007F10E0301211846FFF796FB01E0FFF7EA
:100F200042FB00BF1837BD4680BD80B584B000AF1E
:100F300078600023FB810023BB607B681B789BB239
:100F40000133FB81FB89043B7A6813441B68BB6057
:100F5000FB89043BBA6819467868FFF733FB034600
:100F6000012B05D10120FFF709FBFFF759FC01E038
:100F7000FFF719FB00BF1037BD4680BD0FB480B529
:100F80009CB000AF012387F86F300023BB6007F1EE
:100F90000C0360220021184602F048FCBB6F002BB6
:100FA00003D1002387F86F3011E007F17C037B60E9
:100FB00007F108037A68B96F184602F02DFC07F1B3
:100FC00008014FF0FF336422054801F0F8FF97F85D
:100FD0006F3018467037BD46BDE8804004B070479A
:100FE0005801002080B582B000AF0123FB710123BE
:100FF000BB7100237B71C8220021434802F016FC1C
:101000004FF0FF3301224049404802F06AF803469E
:10101000BB71BB79002B02D00023FB716EE03A4B11
:101020001B787B717B799AB24FF0FF333849374890
:1010300002F057F80346BB71BB79002B02D00023A6
:10104000FB715BE0304B5B78103B112B52D801A257
:1010500052F823F09D100008A5100008AD100008FC
:10106000B5100008BD100008C5100008CD1000081C
:10107000D5100008ED100008DD100008F51000087C
:10108000F5100008F5100008F5100008F51000082C
:10109000F5100008F5100008E51000081A48FFF7E1
:1010A000BFFC2BE01848FFF7EDFC27E01648FFF7E0
:1010B00017FD23E01448FFF73CFE1FE01248FFF73E
:1010C00047FD1BE01048FFF78EFD17E00E48FFF7C5
:1010D000CFFD13E00C48FFF7ADFE0FE00A48FFF725
:1010E000EAFE0BE00848FFF757FE07E00648FFF767
:1010F0001CFF03E00748FFF741FF00BFFB791846DC
:101100000837BD4680BD00BF840000205801002084
:10111000850000204C41000880B500AF064B074A0F
:101120001A60054800F05DFB0346002B01D000F07B
:10113000C5F800BF80BD00BF4C0100200030024058
:1011400080B485B000AF78607B681B680B4A93421F
:101150000DD10023FB600A4B1B6B094A43F48053FB
:101160001363074B1B6B03F48053FB60FB6800BFEA
:101170001437BD465DF8047B704700BF0030024065
:101180000038024080B483B000AF00237B60104B76
:101190001B6B0F4A43F0800313630D4B1B6B03F073
:1011A00080037B607B6800233B60094B1B6B084A14
:1011B00043F001031363064B1B6B03F001033B6019
:1011C0003B6800BF0C37BD465DF8047B704700BF2D
:1011D0000038024080B582B000AF0023FB7100F000
:1011E000A9F900F00BF8FFF7CDFFFFF795FF00F02E
:1011F00005F9FFF7F7FE0346FB71FAE780B594B0F7
:1012000000AF07F1200330220021184602F00EFB48
:1012100007F10C0300221A605A609A60DA601A61C2
:101220000023BB60234B1B6C224A43F080531364A2
:10123000204B1B6C03F08053BB60BB6800237B60BA
:101240001D4B1B6823F440431B4A43F400431360C7
:10125000194B1B6803F440437B607B6801233B62AE
:101260004FF480337B620023BB6307F120031846F1
:1012700001F032F90346002B01D000F01FF80F23D4
:10128000FB6001233B6100237B614FF48053BB6112
:101290000023FB6107F10C030021184601F094FBC9
:1012A0000346002B01D000F009F800BF5037BD46BF
:1012B00080BD00BF003802400070004080B400AF25
:1012C00072B600BFFEE7000080B483B000AF002319
:1012D0007B60104B5B6C0F4A43F4804353640D4BAF
:1012E0005B6C03F480437B607B6800233B60094BAD
:1012F0001B6C084A43F080531364064B1B6C03F0CD
:1013000080533B603B6800BF0C37BD465DF8047BF3
:10131000704700BF0038024080B400AFFEE780B4E1
:1013200000AFFEE780B400AFFEE780B400AFFEE799
:1013300080B400AFFEE780B400AF00BFBD465DF8EB
:10134000047B704780B400AF00BFBD465DF8047BEE
:10135000704780B400AF00BFBD465DF8047B7047A6
:1013600080B500AF00F038F900BF80BD80B586B011
:1013700000AF7860144A154BD31A7B617B693B61DF
:10138000134B1B68002B02D1114B124A1A60104BF1
:101390001A687B6813443A699A4207D202F04EFAFF
:1013A00003460C221A604FF0FF3309E0084B1B681C
:1013B000FB60074B1A687B681344054A1360FB689F
:1013C00018461837BD4680BD00000120000400000B
:1013D000540100200803002080B400AF064BD3F86E
:1013E0008830054A43F47003C2F8883000BFBD4618
:1013F0005DF8047B704700BF00ED00E080B500AFF2
:10140000114B124A1A60104B4FF4E1325A600E4BE6
:1014100000229A600C4B0022DA600B4B00221A610A
:10142000094B0C225A61084B00229A61064B00229C
:10143000DA61054801F076FD0346002B01D0FFF785
:101440003DFF00BF80BD00BF5801002000100140DB
:1014500080B58AB000AF786007F1140300221A60EB
:101460005A609A60DA601A617B681B68194A934275
:101470002CD100233B61184B5B6C174A43F01003DF
:101480005364154B5B6C03F010033B613B69002315
:10149000FB60114B1B6B104A43F0010313630E4BAF
:1014A0001B6B03F00103FB60FB684FF4C0637B61BF
:1014B0000223BB610023FB6103233B6207237B62A2
:1014C00007F114031946054800F082FE00BF2837D3
:1014D000BD4680BD001001400038024000000240BF
:1014E000DFF834D00D480E490E4A002302E0D458EC
:1014F000C4500433C4188C42F9D30B4A0B4C00235C
:1015000001E013600432A242FBD3FFF765FF02F053
:101510009BF9FFF75FFE70470000012000000020EC
:1015200068000020D841000868000020080300205F
:10153000FEE7000080B500AF0E4B1B680D4A43F478
:10154000007313600B4B1B680A4A43F480631360FB
:10155000084B1B68074A43F480731360032000F0B4
:101560000DF90F2000F008F8FFF7AEFE0023184633
:1015700080BD00BF003C024080B582B000AF786003
:10158000124B1A68124B1B7819464FF47A73B3FB4F
:10159000F1F3B2FBF3F3184600F017F90346002B02
:1015A00001D001230EE07B680F2B0AD80022796856
:1015B0004FF0FF3000F0EDF8064A7B68136000231F
:1015C00000E0012318460837BD4680BD0C0000200E
:1015D000140000201000002080B400AF064B1B78E0
:1015E0001A46064B1B681344044A136000BFBD46ED
:1015F0005DF8047B704700BF140000209C010020B0
:1016000080B400AF034B1B681846BD465DF8047BF1
:10161000704700BF9C01002080B485B000AF7860A7
:101620007B6803F00703FB600C4BDB68BB60BA68A8
:101630004FF6FF031340BB60FB681A02BB681343FD
:1016400043F0BF6343F40033BB60044ABB68D3601C
:1016500000BF1437BD465DF8047B704700ED00E025
:1016600080B400AF044BDB681B0A03F00703184685
:10167000BD465DF8047B704700ED00E080B483B0A8
:1016800000AF03463960FB7197F90730002B0ADB86
:101690003B68DAB20C4997F907301201D2B20B4419
:1016A00083F800230AE03B68DAB20849FB7903F0CB
:1016B0000F03043B1201D2B20B441A7600BF0C3761
:1016C000BD465DF8047B704700E100E000ED00E0FE
:1016D00080B489B000AFF860B9607A60FB6803F04D
:1016E0000703FB61FB69C3F10703042B28BF042335
:1016F000BB61FB690433062B02D9FB69033B00E0A5
:1017000000237B614FF0FF32BB6902FA03F3DA4337
:10171000BB681A407B699A404FF0FF317B6901FA40
:1017200003F3D9437B680B40134318462437BD4667
:101730005DF8047B7047000080B582B000AF786030
:101740007B68013BB3F1807F01D301230FE00A4A9C
:101750007B68013B53600F214FF0FF30FFF78EFF96
:10176000054B00229A60044B07221A60002318469A
:101770000837BD4680BD00BF10E000E080B582B0F4
:1017800000AF78607868FFF747FF00BF0837BD46B5
:1017900080BD80B586B000AF0346B9607A60FB7348
:1017A00000237B61FFF75CFF78617A68B96878692C
:1017B000FFF78EFF024697F90F3011461846FFF7E4
:1017C0005DFF00BF1837BD4680BD80B582B000AF59
:1017D00078607868FFF7B0FF034618460837BD46C3
:1017E00080BD80B582B000AF78607B68002B01D1EE
:1017F00001230EE07B685B79DBB2002B05D17B68AF
:1018000000221A717868FFF79BFC7B6801225A71ED
:10181000002318460837BD4680BD80B487B000AFAE
:10182000F860B9607A6000233B61FB6802225A715C
:1018300000237B610AE07B699B00BA681A44FB685D
:101840001B6812681A607B6901337B617A697B6867
:101850009A42F0D3FB681B681B683B61FB6801225E
:101860005A713B6918461C37BD465DF8047B7047CA
:1018700080B586B000AFF860B960C7E900230123E6
:10188000FB75234B1B7E012B01D102233BE0204B38
:1018900001221A764CF2503000F0B0F80346FB7586
:1018A000FB7D002B2BD1FB68002B05D13B78194623
:1018B000B86800F05BF916E0FB68012B05D13B88A6
:1018C0001946B86800F02EF90DE0FB68022B05D12F
:1018D0003B681946B86800F003F904E0D7E9002333
:1018E000B86800F0CBF84CF2503000F087F80346AF
:1018F000FB75084B1B69074A23F001031361044B76
:1019000000221A76FB7D18461837BD4680BD00BF01
:10191000A0010020003C024080B483B000AF00234F
:10192000FB710B4B1B69002B0BDA094B094A5A6000
:10193000074B094A5A60064B1B69002B01DA012349
:10194000FB71FB7918460C37BD465DF8047B704788
:10195000003C024023016745AB89EFCD80B400AF66
:10196000054B1B69044A43F00043136100231846EA
:10197000BD465DF8047B7047003C024080B400AF78
:10198000094B5B6903F00103002B07D0064B074AA4
:101990009A60054B064A9A60002300E0012318462E
:1019A000BD465DF8047B7047003C02403B2A1908A5
:1019B0007F6E5D4C80B400AF054B5B69044A43F019
:1019C0000103536100231846BD465DF8047B704750
:1019D000003C024080B500AF074B1B78DBB2064AE3
:1019E00043F00203DBB213704CF2503000F006F803
:1019F0000346184680BD00BF143C024080B584B049
:101A000000AF78600023FB601A4B0022DA61FFF719
:101A1000F7FDF86010E07B68B3F1FF3F0CD07B6806
:101A2000002B07D0FFF7ECFD0246FB68D31A7A685B
:101A30009A4201D2032319E00F4BDB6803F4803391
:101A4000002BE8D10C4BDB6803F00103002B02D024
:101A5000094B0122DA60084BDB6803F4F973002BB1
:101A600003D000F0A5F8012300E00023184610374A
:101A7000BD4680BDA0010020003C024080B485B07E
:101A800000AFF860C7E90023144B1B69134A23F425
:101A900040731361114B1B69104A43F44073136187
:101AA0000E4B1B690D4A43F001031361FB683A6852
:101AB0001A60BFF36F8F00BFD7E900014FF000023B
:101AC0004FF000030A000023F968043113460B604D
:101AD00000BF1437BD465DF8047B7047003C0240F0
:101AE00080B483B000AF786039600D4B1B690C4A3D
:101AF00023F4407313610A4B1B69094A43F40073D2
:101B00001361074B1B69064A43F0010313617B68AD
:101B10003A681A6000BF0C37BD465DF8047B704719
:101B2000003C024080B483B000AF78600B467B80FD
:101B30000D4B1B690C4A23F4407313610A4B1B695C
:101B4000094A43F480731361074B1B69064A43F04B
:101B5000010313617B687A881A8000BF0C37BD4689
:101B60005DF8047B704700BF003C024080B483B046
:101B700000AF78600B46FB700C4B1B690B4A23F4DB
:101B800040731361094B094A1B691361074B1B69B9
:101B9000064A43F0010313617B68FA781A7000BFAC
:101BA0000C37BD465DF8047B704700BF003C024027
:101BB00080B400AF2F4BDB6803F01003002B08D07C
:101BC0002D4BDB6943F010032B4AD361294B1022C4
:101BD000DA60284BDB6803F02003002B08D0264B8B
:101BE000DB6943F00803244AD361224B2022DA60E8
:101BF000204BDB6803F04003002B08D01E4BDB6951
:101C000043F004031C4AD3611A4B4022DA60194B9B
:101C1000DB6803F08003002B08D0174BDB6943F02F
:101C20000203154AD361134B8022DA60114BDB6843
:101C300003F48073002B09D00F4BDB6943F00103E1
:101C40000D4AD3610B4B4FF48072DA60094BDB68AD
:101C500003F00203002B08D0074BDB6943F020039D
:101C6000054AD361034B0222DA6000BFBD465DF82E
:101C7000047B7047003C0240A001002080B584B086
:101C800000AF786039600123FB730023BB60314BE8
:101C90001B7E012B01D1022358E02E4B01221A7624
:101CA0004CF25030FFF7AAFE0346FB73FB7B002B80
:101CB00048D13B684FF0FF321A607B681B68012BEC
:101CC00015D17B681B69DAB27B685B6819461046E0
:101CD00000F0D6F84CF25030FFF790FE0346FB734D
:101CE0001D4B1B691C4A23F00403136128E07B6829
:101CF0009B68BB601CE07B681B69DBB21946B86857
:101D000000F0E2F84CF25030FFF778FE0346FB7328
:101D1000114B1B69104A23F0FA031361FB7B002B64
:101D200003D03B68BA681A600AE0BB680133BB6045
:101D30007B68DA687B689B681344BA689A42DAD396
:101D400000F000FA034B00221A76FB7B184610378E
:101D5000BD4680BDA0010020003C024080B584B09B
:101D600000AF78600123FB73324B1B7E012B01D146
:101D700002235BE02F4B01221A767B681B6803F07D
:101D80000103002B18D07B685B68012B0AD17B68AC
:101D90009A687B68DB681946104600F0DDF8034658
:101DA000FB7309E07B689A687B68DB68194610461C
:101DB00000F0F4F80346FB737B681B6803F0020332
:101DC000002B07D07B681B69DBB2184600F006F9D0
:101DD0000346FB737B681B6803F00403002B13D0DE
:101DE0007B681B7E03F02003D8B27B681B7E03F068
:101DF0004003D9B27B681B7E23F07F03DBB21A4617
:101E000000F006F90346FB737B681B6803F00803C8
:101E1000002B07D07B685B69DBB2184600F028F91D
:101E20000346FB73034B00221A76FB7B18461037E0
:101E3000BD4680BDA001002080B582B000AF7860B3
:101E40007B680F221A6000F041F903461A467B684E
:101E50009A6000F047F903461A467B681A6100F061
:101E600025F903461A467B681A7600F05BF90346AB
:101E70001A467B685A6100BF0837BD4680BD000026
:101E800080B483B000AF03463960FB710D4B1B6912
:101E90000C4A23F4407313610A4B1B69094A43F04F
:101EA00004031361074B1A69FB791B021343054AAC
:101EB00043F48033136100BF0C37BD465DF8047BEB
:101EC000704700BF003C024080B485B000AF78602E
:101ED0000B46FB700023FB60FB78002B02D1002334
:101EE000FB6010E0FB78012B03D14FF48073FB60A3
:101EF00009E0FB78022B03D14FF40073FB6002E092
:101F00004FF44073FB60134B1B69124A23F4407378
:101F10001361104B1A690F49FB6813430B610D4B9A
:101F20001B690C4A23F0F80313610A4B1A697B689A
:101F3000DB001343074A43F002031361054B1B699F
:101F4000044A43F48033136100BF1437BD465DF883
:101F5000047B7047003C024080B584B000AF7860DD
:101F600039600023FB734CF25030FFF747FD034606
:101F7000FB73FB7B002B0AD1074B1B889AB27B6853
:101F80009BB2DB439BB2044913409BB20B80FB7BAB
:101F900018461037BD4680BD163C024080B584B05F
:101FA00000AF786039600023FB734CF25030FFF7CC
:101FB00025FD0346FB73FB7B002B08D1064B1B88DA
:101FC0009AB27B689BB2044913439BB20B80FB7BA4
:101FD00018461037BD4680BD163C024080B584B01F
:101FE00000AF0346FB710023FB734CF25030FFF748
:101FF00005FD0346FB73FB7B002B02D1034AFB79F3
:102000001370FB7B18461037BD4680BD153C02405F
:1020100080B584B000AF0346FB710B46BB7113461D
:102020007B71FF23FB730023BB734CF25030FFF72F
:10203000E5FC0346BB73BB7B002B11D10B4B1B781C
:10204000DBB203F01F03FB73BA79FB7B1343DAB2F5
:102050007B791343DAB20549FB791343DBB20B708A
:10206000BB7B18461037BD4680BD00BF143C024004
:1020700080B483B000AF0346FB710B4B1B78DBB21F
:10208000094A23F00C03DBB21370074B1B78DAB25A
:102090000549FB791343DBB20B70002318460C375C
:1020A000BD465DF8047B7047143C024080B400AF2D
:1020B000054B5B69DBB223F01F03DBB21846BD465C
:1020C0005DF8047B704700BF003C024080B400AF65
:1020D000034B1B889BB21846BD465DF8047B7047D6
:1020E000163C024080B483B000AFAA23FB710C4BB6
:1020F0001B78DBB2CC2B02D1CC23FB7109E0084B5F
:102100001B78DBB2AA2B02D1AA23FB7101E0552375
:10211000FB71FB7918460C37BD465DF8047B7047B0
:10212000153C024080B400AF054B1B78DBB203F0D6
:102130000C03DBB21846BD465DF8047B704700BF58
:10214000143C024080B400AF204B1B6803F40073C2
:10215000002B17D01D4B1B681C4A23F4007313601F
:102160001A4B1B68194A43F400631360174B1B6832
:10217000164A23F400631360144B1B68134A43F49C
:1021800000731360114B1B6803F48063002B17D09E
:102190000E4B1B680D4A23F4806313600B4B1B68C6
:1021A0000A4A43F480531360084B1B68074A23F420
:1021B00080531360054B1B68044A43F4806313602B
:1021C00000BFBD465DF8047B704700BF003C024085
:1021D00080B489B000AF7860396000237B61002350
:1021E0003B610023BB610023FB6159E10122FB69D4
:1021F00002FA03F37B613B681B687A6913403B6119
:102200003A697B699A4240F048813B685B6803F019
:102210000303012B05D03B685B6803F00303022B2B
:1022200030D17B689B68BB61FB695B00032202FACB
:1022300003F3DB43BA691340BB613B68DA68FB69AF
:102240005B0002FA03F3BA691343BB617B68BA69A6
:102250009A607B685B68BB610122FB6902FA03F349
:10226000DB43BA691340BB613B685B681B0903F041
:102270000102FB6902FA03F3BA691343BB617B688D
:10228000BA695A603B685B6803F00303032B17D0FD
:102290007B68DB68BB61FB695B00032202FA03F326
:1022A000DB43BA691340BB613B689A68FB695B001A
:1022B00002FA03F3BA691343BB617B68BA69DA6057
:1022C0003B685B6803F00303022B23D1FB69DA0848
:1022D0007B68083253F82230BB61FB6903F00703C7
:1022E0009B000F2202FA03F3DB43BA691340BB6180
:1022F0003B681A69FB6903F007039B0002FA03F3CA
:10230000BA691343BB61FB69DA087B680832B969B3
:1023100043F822107B681B68BB61FB695B000322EA
:1023200002FA03F3DB43BA691340BB613B685B68A5
:1023300003F00302FB695B0002FA03F3BA6913437B
:10234000BB617B68BA691A603B685B6803F4403321
:10235000002B00F0A2800023FB60574B5B6C564AB9
:1023600043F480435364544B5B6C03F48043FB6041
:10237000FB68524AFB699B08023352F82330BB6169
:10238000FB6903F003039B000F2202FA03F3DB4314
:10239000BA691340BB617B68494A934219D07B6894
:1023A000484A934213D07B68474A93420DD07B68DA
:1023B000464A934207D07B68454A934201D10423A1
:1023C00008E0072306E0032304E0022302E00123E0
:1023D00000E00023FA6902F0030292009340BA6918
:1023E0001343BB613549FB699B080233BA6941F865
:1023F0002320384B9B68BB613B69DB43BA691340C0
:10240000BB613B685B6803F48013002B03D0BA699F
:102410003B691343BB612F4ABB6993602D4BDB685B
:10242000BB613B69DB43BA691340BB613B685B68D6
:1024300003F40013002B03D0BA693B691343BB615B
:10244000244ABB69D360234B5B68BB613B69DB43B8
:10245000BA691340BB613B685B6803F40033002B2F
:1024600003D0BA693B691343BB611A4ABB69536025
:10247000184B1B68BB613B69DB43BA691340BB6106
:102480003B685B6803F48033002B03D0BA693B6977
:102490001343BB610F4ABB691360FB690133FB61E6
:1024A000FB690F2B7FF6A2AE00BF00BF2437BD46ED
:1024B0005DF8047B704700BF0038024000380140DF
:1024C000000002400004024000080240000C0240EC
:1024D00000100240003C014080B586B000AF78603B
:1024E0007B68002B01D1012367E27B681B6803F046
:1024F0000103002B75D0884B9B6803F00C03042B61
:102500000CD0854B9B6803F00C03082B12D1824B37
:102510005B6803F48003B3F5800F0BD17E4B1B681F
:1025200003F40033002B5BD07B685B68002B57D132
:10253000012342E27B685B68B3F5803F06D1764BAE
:102540001B68754A43F4803313601DE07B685B6849
:10255000B3F5A02F0CD1704B1B686F4A43F4802356
:1025600013606D4B1B686C4A43F4803313600BE0BF
:10257000694B1B68684A23F480331360664B1B6801
:10258000654A23F4802313607B685B68002B13D0BB
:10259000FFF736F8386108E0FFF732F802463B698A
:1025A000D31A642B01D9032307E25B4B1B6803F4A6
:1025B0000033002BF0D014E0FFF722F8386108E078
:1025C000FFF71EF802463B69D31A642B01D9032397
:1025D000F3E1514B1B6803F40033002BF0D100E012
:1025E00000BF7B681B6803F00203002B63D04A4BDB
:1025F0009B6803F00C03002B0BD0474B9B6803F048
:102600000C03082B1CD1444B5B6803F48003002BA4
:1026100016D1414B1B6803F00203002B05D07B68E9
:10262000DB68012B01D00123C7E13B4B1B6823F082
:10263000F8027B681B69DB00374913430B603AE003
:102640007B68DB68002B20D0344B01221A60FEF738
:10265000D7FF386108E0FEF7D3FF02463B69D31A83
:10266000022B01D90323A8E12B4B1B6803F00203C3
:10267000002BF0D0284B1B6823F0F8027B681B6905
:10268000DB00254913430B6015E0244B00221A6040
:10269000FEF7B6FF386108E0FEF7B2FF02463B697D
:1026A000D31A022B01D9032387E11B4B1B6803F0CC
:1026B0000203002BF0D17B681B6803F00803002B9A
:1026C00036D07B685B69002B16D0154B01221A604F
:1026D000FEF796FF386108E0FEF792FF02463B697D
:1026E000D31A022B01D9032367E10B4B5B6F03F075
:1026F0000203002BF0D01BE0094B00221A60FEF70A
:102700007FFF38610EE0FEF77BFF02463B69D31A7C
:10271000022B07D9032350E1003802400000474252
:10272000800E4742884B5B6F03F00203002BEAD117
:102730007B681B6803F00403002B00F097800023E4
:10274000FB75814B1B6C03F08053002B0FD10023D2
:10275000BB607D4B1B6C7C4A43F0805313647A4B07
:102760001B6C03F08053BB60BB680123FB75774B88
:102770001B6803F48073002B18D1744B1B68734AD9
:1027800043F480731360FEF73BFF386108E0FEF707
:1027900037FF02463B69D31A022B01D903230CE110
:1027A0006A4B1B6803F48073002BF0D07B689B6836
:1027B000012B06D1644B1B6F634A43F0010313677F
:1027C0001CE07B689B68052B0CD15F4B1B6F5E4A3E
:1027D00043F0040313675C4B1B6F5B4A43F0010338
:1027E00013670BE0584B1B6F574A23F00103136725
:1027F000554B1B6F544A23F0040313677B689B6897
:10280000002B15D0FEF7FCFE38610AE0FEF7F8FE5B
:1028100002463B69D31A41F28832934201D903231D
:10282000CBE0494B1B6F03F00203002BEED014E00A
:10283000FEF7E6FE38610AE0FEF7E2FE02463B697B
:10284000D31A41F28832934201D90323B5E03E4BBB
:102850001B6F03F00203002BEED1FB7D012B05D192
:10286000394B1B6C384A23F0805313647B689B6997
:10287000002B00F0A180344B9B6803F00C03082B65
:102880005CD07B689B69022B41D1314B00221A60DE
:10289000FEF7B6FE386108E0FEF7B2FE02463B697D
:1028A000D31A022B01D9032387E0274B1B6803F0BF
:1028B0000073002BF0D17B68DA697B681B6A1A43CE
:1028C0007B685B6A9B011A437B689B6A5B08013BE0
:1028D0001B041A437B68DB6A1B061B4913434B60CE
:1028E0001B4B01221A60FEF78BFE386108E0FEF7F1
:1028F00087FE02463B69D31A022B01D903235CE011
:10290000114B1B6803F00073002BF0D054E0104B08
:1029100000221A60FEF774FE386108E0FEF770FED0
:1029200002463B69D31A022B01D9032345E0064B2B
:102930001B6803F00073002BF0D13DE07B689B69BE
:10294000012B07D1012338E000380240007000401D
:10295000600047421B4B5B68FB607B689B69012BF7
:1029600028D0FB6803F480027B68DB699A4221D19E
:10297000FB6803F03F027B681B6A9A421AD1FA682F
:1029800047F6C07313407A68526A9201934211D19C
:10299000FB6803F440327B689B6A5B08013B1B04C5
:1029A0009A4207D1FB6803F070627B68DB6A1B0602
:1029B0009A4201D0012300E0002318461837BD4693
:1029C00080BD00BF0038024080B584B000AF7860A1
:1029D00039607B68002B01D10123CCE0684B1B6878
:1029E00003F007033A689A420CD9654B3A68D2B2B1
:1029F0001A70634B1B6803F007033A689A4201D0D0
:102A00000123B8E07B681B6803F00203002B20D091
:102A10007B681B6803F00403002B05D0594B9B68AF
:102A2000584A43F4E05393607B681B6803F0080343
:102A3000002B05D0534B9B68524A43F4604393608C
:102A4000504B9B6823F0F0027B689B684D49134311
:102A50008B607B681B6803F00103002B44D07B680C
:102A60005B68012B07D1474B1B6803F40033002B35
:102A700019D101237FE07B685B68022B03D07B6860
:102A80005B68032B07D13F4B1B6803F00073002BDF
:102A900009D101236FE03B4B1B6803F00203002BBD
:102AA00001D1012367E0374B9B6823F003027B6869
:102AB0005B68344913438B60FEF7A2FDF8600AE0BF
:102AC000FEF79EFD0246FB68D31A41F2883293421C
:102AD00001D903234FE02B4B9B6803F00C027B686A
:102AE0005B689B009A42EBD1254B1B6803F0070300
:102AF0003A689A420CD2224B3A68D2B21A70204BF2
:102B00001B6803F007033A689A4201D0012332E0C0
:102B10007B681B6803F00403002B08D0194B9B68EB
:102B200023F4E0527B68DB68164913438B607B68B3
:102B30001B6803F00803002B09D0124B9B6823F499
:102B400060427B681B69DB000E4913438B6000F019
:102B500021F802460B4B9B681B0903F00F030A493F
:102B6000CB5C22FA03F3094A1360094B1B68184631
:102B7000FEF702FD002318461037BD4680BD00BF9A
:102B8000003C0240003802407C4100080C0000205C
:102B9000100000202DE9B04F90B000AF00237B6300
:102BA0000023FB6300233B630023BB63594B9B68FB
:102BB00003F00C03082B0DD0082B00F2A180002B92
:102BC00002D0042B03D09BE0534BBB639BE0534BE1
:102BD000BB6398E04F4B5B6803F03F037B634D4B57
:102BE0005B6803F48003002B28D04A4B5B689B0989
:102BF00000223B627A623B6AC3F308000021474B24
:102C000003FB01F2002300FB03F31344434AA0FB40
:102C10000212FA620A46BA62FA6A1344FB627B6BDA
:102C20000022BB61FA61D7E90623D7E90A01FDF763
:102C300027FB02460B461346FB6353E0354B5B68AC
:102C40009B0900223B617A613B69C3F3080A4FF09C
:102C5000000B52465B464FF000004FF00001590157
:102C600041EAD261500102460B46B2EB0A0863EB1F
:102C70000B094FF000024FF000034FEA891343EABB
:102C800098634FEA8812B2EB080463EB09054FF032
:102C900000024FF00003EB0043EA5473E2001446D5
:102CA0001D4614EB0A033B6045EB0B037B604FF0C2
:102CB00000024FF00003D7E9004529468B02214668
:102CC00043EA915321468A02104619467B6B002243
:102CD000BB60FA60D7E90223FDF7D2FA02460B4641
:102CE0001346FB630B4B5B681B0C03F003030133C0
:102CF0005B003B63FA6B3B6BB2FBF3F3BB6302E03D
:102D0000054BBB6300BFBB6B18464037BD46BDE8F3
:102D1000B08F00BF003802400024F40040787D01ED
:102D200080B400AF034B1B681846BD465DF8047BBA
:102D3000704700BF0C00002080B500AFFFF7F0FF28
:102D40000246054B9B689B0A03F007030349CB5CD3
:102D500022FA03F3184680BD003802408C41000877
:102D600080B500AFFFF7DCFF0246054B9B685B0BAD
:102D700003F007030349CB5C22FA03F3184680BD36
:102D8000003802408C41000880B582B000AFFEF7E9
:102D900037FC78605D4B1B685C4A43F001031360AD
:102DA00008E0FEF72DFC02467B68D31A022B01D9FE
:102DB0000323A7E0554B1B6803F00203002BF0D060
:102DC000524B1B68514A43F080031360FEF718FC16
:102DD00078604E4B00229A600AE0FEF711FC024632
:102DE0007B68D31A41F28832934201D9032389E0E8
:102DF000464B9B6803F00C03002BEED1FEF700FC62
:102E00007860424B1B68414A23F45023136008E06A
:102E1000FEF7F6FB02467B68D31A642B01D9032325
:102E200070E03A4B1B6803F40033002BF0D1FEF73F
:102E3000E7FB7860354B1B68344A23F080731360DE
:102E400008E0FEF7DDFB02467B68D31A022B01D9AE
:102E5000032357E02D4B1B6803F00073002BF0D1C8
:102E6000FEF7CEFB7860294B1B68284A23F080636D
:102E7000136008E0FEF7C4FB02467B68D31A022BFE
:102E800001D903233EE0214B1B6803F00063002BB4
:102E9000F0D11E4B1E4A5A601C4B1E4AC3F88420B8
:102EA0001A4BDB68194A23F4F853D360174BDB68DD
:102EB000164A23F40053D360144BDB68134A43F4DF
:102EC0001F03D360114BDB68104A43F40013D36037
:102ED0000E4B5B6F0D4A23F0010353670B4B5B6F87
:102EE0000A4A43F0807353670B4B0C4A1A600C4B31
:102EF0001B681846FEF740FB0346002B01D0012358
:102F000000E0002318460837BD4680BD0038024067
:102F100010300004003000200C0000200024F400D9
:102F20001000002080B582B000AF78607B68002B75
:102F300001D101233FE07B6893F83D30DBB2002BE9
:102F400006D17B68002283F83C207868FEF780FA7F
:102F50007B68242283F83D207B681B68DA687B68E5
:102F60001B6822F40052DA60786800F0CBF97B68C5
:102F70001B681A697B681B6822F490421A617B689F
:102F80001B685A697B681B6822F02A025A617B68B9
:102F90001B68DA687B681B6842F40052DA607B6861
:102FA00000221A647B68202283F83D207B6820225F
:102FB00083F83E20002318460837BD4680BD80B503
:102FC0008AB002AFF860B9603B601346FB80002313
:102FD0007B61FB6893F83D30DBB2202B7CD1BB6872
:102FE000002B02D0FB88002B01D1012375E0FB6888
:102FF00093F83C30012B01D102236EE0FB680122E3
:1030000083F83C20FB6800221A64FB68212283F8C5
:103010003D20FEF7F5FA7861FB68FA889A84FB6830
:10302000FA88DA84FB689B68B3F5805F08D1FB6897
:103030001B69002B04D10023FB61BB68BB6103E06B
:10304000BB68FB610023BB61FB68002283F83C2066
:103050002AE03B6800937B6900228021F86800F039
:10306000E2F80346002B01D0032336E0FB69002B76
:103070000BD1BB691B881A46FB681B68C2F30802A8
:103080005A60BB690233BB6107E0FB691A78FB68D1
:103090001B685A60FB690133FB61FB68DB8C9BB2E8
:1030A000013B9AB2FB68DA84FB68DB8C9BB2002B95
:1030B000CFD13B6800937B6900224021F86800F083
:1030C000B2F80346002B01D0032306E0FB68202260
:1030D00083F83D20002300E0022318462037BD4638
:1030E00080BD80B58AB002AFF860B9603B6013461E
:1030F000FB8000237B61FB6893F83E30DBB2202B22
:1031000040F08C80BB68002B02D0FB88002B01D1E3
:10311000012384E0FB6893F83C30012B01D10223AA
:103120007DE0FB68012283F83C20FB6800221A64E2
:10313000FB68222283F83E20FB6800221A63FEF718
:103140005FFA7861FB68FA889A85FB68FA88DA8505
:10315000FB689B68B3F5805F08D1FB681B69002B97
:1031600004D10023FB61BB68BB6103E0BB68FB616A
:103170000023BB61FB68002283F83C2043E03B68EE
:1031800000937B6900222021F86800F04CF8034688
:10319000002B01D0032342E0FB69002B0CD1FB681C
:1031A0001B685B689BB2C3F308039AB2BB691A80C1
:1031B000BB690233BB611FE0FB689B68B3F5805FAE
:1031C00007D0FB689B68002B0AD1FB681B69002BAA
:1031D00006D1FB681B685B68DAB2FB691A7008E00D
:1031E000FB681B685B68DBB203F07F03DAB2FB6944
:1031F0001A70FB690133FB61FB68DB8D9BB2013BFD
:103200009AB2FB68DA85FB68DB8D9BB2002BB6D1E6
:10321000FB68202283F83E20002300E002231846AA
:103220002037BD4680BD80B590B000AFF860B96072
:103230003B601346FB7150E0BB6CB3F1FF3F4CD0D9
:10324000BB6C002B07D0FEF7DBF902463B68D31AB4
:10325000BA6C9A4241D2FB681B680C33BB62BB6AF2
:1032600053E8003F7B627B6A23F4D073FB63FB6807
:103270001B680C33FA6B7A633B63396B7A6B41E8FA
:103280000023FB62FB6A002BE5D1FB681B6814334B
:103290007B617B6953E8003F3B613B6923F001039D
:1032A000BB63FB681B681433BA6B3A62FB61F96954
:1032B0003A6A41E80023BB61BB69002BE5D1FB689A
:1032C000202283F83D20FB68202283F83E20FB6803
:1032D000002283F83C2003230FE0FB681B681A6878
:1032E000BB681340BA689A420CBF01230023DBB2CB
:1032F0001A46FB799A429FD0002318464037BD46B4
:1033000080BD00002DE9B04FC0B000AFC7F8F40099
:10331000D7F8F4301B681B6923F44050D7F8F43019
:10332000D968D7F8F4301A6840EA01031361D7F876
:10333000F4309A68D7F8F4301B691A43D7F8F430A0
:103340005B691A43D7F8F430DB691343C7F8F830E8
:10335000D7F8F4301B68DB6823F4164121F00C0128
:10336000D7F8F4301A68D7F8F8300B43D360D7F8A1
:10337000F4301B685B6923F44070D7F8F430996926
:10338000D7F8F4301A6840EA01035361D7F8F430F3
:103390001A688F4B9A4205D0D7F8F4301A688D4BD3
:1033A0009A4204D1FFF7DCFCC7F8FC0003E0FFF70A
:1033B000C3FCC7F8FC00D7F8F430DB69B3F5004F65
:1033C00040F00C81D7F8FC300022C7F8E830C7F88D
:1033D000EC20D7E93A4522462B469118B9655B4166
:1033E000FB65D7E91623214612EB0108294643EB7A
:1033F00001094FF000024FF000034FEAC90343EA0E
:1034000058734FEAC80290469946234618EB0303C7
:10341000C7F8E0302B4649EB0303C7F8E430D7F890
:10342000F4305B680022C7F8D830C7F8DC20D7E951
:1034300036120B46DB183B65134642EB03037B65F4
:10344000D7E91423D7E93801FCF71AFF02460B46E7
:10345000614BA3FB02235B091C01D7F8FC3000225F
:10346000C7F8D030C7F8D420D7E9348942464B4654
:103470009118B9645B41FB64D7E91223414612EB12
:10348000010A494643EB010B4FF000024FF00003E5
:103490004FEACB0343EA5A734FEACA0292469B466D
:1034A00043461AEB0303C7F8C8304B464BEB030304
:1034B000C7F8CC30D7F8F4305B680022C7F8C030CA
:1034C000C7F8C420D7E930120B46DB183B6413461B
:1034D00042EB03037B64D7E91023D7E93201FCF701
:1034E000CFFE02460B4611463B4BA3FB01235B0973
:1034F000642202FB03F3CB1ADB0003F13202364BEA
:10350000A3FB02235B095B0003F4F8731C44D7F8A8
:10351000FC300022C7F8B830C7F8BC20D7E92E89A4
:1035200042464B469118B9635B41FB63D7E90E23D2
:1035300041465118396349464B417B634FF00002C5
:103540004FF00003D7E90CAB5946CB00514643EA94
:1035500051735146CA0010461946034642469B180D
:10356000C7F8B0304B460A4642EB0303C7F8B43005
:10357000D7F8F4305B680022C7F8A830C7F8AC2051
:10358000D7E92A120B46DB18BB62134642EB030352
:10359000FB62D7E90A23D7E92C01FCF771FE02464A
:1035A0000B460D4BA3FB02135B09642101FB03F3E4
:1035B000D31ADB003233084AA2FB03235B0903F072
:1035C0000702D7F8F4301B6822449A6006E100BF76
:1035D00000100140001401401F85EB51D7F8FC306A
:1035E0000022C7F8A030C7F8A420D7E928894246AE
:1035F0004B46911839625B417B62D7E9082341460B
:103600005418494643EB01054FF000024FF0000308
:10361000EB0043EA5473E20014461D464346E318A8
:10362000C7F898304B4645EB0303C7F89C30D7F8F2
:10363000F4305B680022C7F89030C7F894204FF050
:1036400000024FF00003D7E9244529468B002146AC
:1036500043EA917321468A00D7E92601FCF710FE60
:1036600002460B46604BA3FB02235B091C01D7F803
:10367000FC300022C7F88830C7F88C20D7E92289AF
:1036800042464B469118B9615B41FB61D7E906237D
:1036900041465118396149464B417B614FF0000268
:1036A0004FF00003D7E904AB5946CB00514643EA3B
:1036B00051735146CA0010461946034642469B18AC
:1036C000C7F880304B460A4642EB0303C7F8843004
:1036D000D7F8F4305B680022BB67FA674FF000024E
:1036E0004FF00003D7E91E8949468B00414643EA63
:1036F000917341468A00D7E92001FCF7C1FD0246DB
:103700000B461146384BA3FB01235B09642202FBE5
:1037100003F3CB1A1B013233334AA2FB03235B09A9
:1037200003F0F0031C44D7F8FC3000223B677A67B3
:10373000D7E91C8942464B469118B9605B41FB6052
:10374000D7E9022341465118396049464B417B6015
:103750004FF000024FF00003D7E900AB5946CB0011
:10376000514643EA51735146CA0010461946034672
:1037700042469B18BB664B460A4642EB0303FB6678
:10378000D7F8F4305B6800223B667A664FF000029F
:103790004FF00003D7E9188949468B00414643EAB8
:1037A000917341468A00D7E91A01FCF769FD024688
:1037B0000B460D4BA3FB02135B09642101FB03F3D2
:1037C000D31A1B013233084AA2FB03235B0903F01F
:1037D0000F02D7F8F4301B6822449A6000BF07F547
:1037E0008077BD46BDE8B08F1F85EB5100B59BB01B
:1037F000009104916FF000410591029105490391F8
:10380000694600F099F9009B00221A701BB05DF820
:1038100004FB00BF0802FFFF13460A4601460248A8
:103820000068FFF7E3BF00BF6400002002440346C6
:10383000934200D1704703F8011BF9E7014B186868
:10384000704700BF6400002070B50D4D0D4C641B27
:10385000A4100026A64209D10B4D0C4C00F06AFCC6
:10386000641BA4100026A64205D170BD55F8043B88
:1038700098470136EEE755F8043B98470136F2E7E2
:10388000D0410008D0410008D0410008D4410008D0
:103890007047704737B5002944D051F8043C019077
:1038A000002BA1F10404B8BFE41800F0DFF81E4AB1
:1038B0000198136833B96360146003B0BDE8304009
:1038C00000F0DAB8A34208D9256861198B4201BF1C
:1038D00019685B6849192160EDE71A465B680BB10E
:1038E000A342FAD911685518A5420BD12468214486
:1038F0005418A3421160E0D11C685B6853600C440B
:103900001460DAE702D90C230360D6E72568611951
:103910008B4204BF19685B68636004BF491921606A
:103920005460CAE703B030BD0003002070B50E4EEE
:103930000C463168054611B900F0A6FB30602146FF
:10394000284600F0A1FB431C0AD0C41C24F0030449
:10395000A04207D0211A284600F096FB013001D181
:103960004FF0FF34204670BD040300202DE9F843DA
:10397000CD1C25F0030508350C2D38BF0C25002D76
:10398000074601DBA94205D90C233B6000263046DF
:10399000BDE8F883DFF8D08000F068F8D8F8003090
:1039A0001C465CBB29463846FFF7C0FF431C044653
:1039B00055D1D8F800402646002E45D1002C48D0DD
:1039C00023683146384604EB030900F05DFB81456E
:1039D0003FD121686D1A29463846FFF7A7FF01300D
:1039E00037D023682B442360D8F80030002B38D020
:1039F0005A68A2422BD100225A600FE02268521B63
:103A00001FD40B2A17D96119A342256018BF59602A
:103A1000636808BFC8F8001062514B60384604F173
:103A20000B0600F029F826F00706231DF21AAED087
:103A30009B1BA350ABE7A3426268DDD1C8F800200E
:103A4000ECE723466468ACE734467668B4E713468F
:103A5000CCE70C233B60384600F00EF897E7256072
:103A6000DCE75B60FFDE00BF000300200148FFF7DA
:103A70000FBF00BFFC0200200148FFF70ABF00BFD4
:103A8000FC0200202DE9F0478E681F46BE420B68FD
:103A900082460C4690462CD88A8912F4906F26D024
:103AA0006569096905EB4505A3EB010905EBD575CA
:103AB0007B1C4B446D109D4238BF1D46530527D5D6
:103AC0002946FFF753FF064660B321694A4600F0D6
:103AD000EBFAA38923F4906343F08003A38126616A
:103AE00065614E44A5EB09052660A5603E46BE42D1
:103AF00000D93E4620683246414600F0ABFAA36842
:103B00009B1BA3602368334423600020BDE8F0873B
:103B10002A4600F0D7FA06460028E0D1216950462F
:103B2000FFF7B8FE0C23CAF80030A38943F0400326
:103B3000A3814FF0FF30E9E72DE9F04F98468B89DC
:103B40001B069DB007460D4614460ED50B6963B99A
:103B50004021FFF70BFF2860286120B90C233B6050
:103B60004FF0FF30D0E040236B6100230993202306
:103B70008DF82930CDF80C803023DFF8A4818DF842
:103B80002A304FF0010923469A4613F8012B0AB157
:103B9000252AF9D1BAEB040B0BD05B462246294605
:103BA0003846FFF76FFF013000F0A980099A5A44A8
:103BB00009929AF80030002B00F0A18000234FF00A
:103BC000FF32CDE905230AF1010A049307938DF82A
:103BD00053301A935446052214F8011B5048FCF741
:103BE000FFFA049AD8B9D00644BF20238DF8533089
:103BF000110744BF2B238DF853309AF800302A2B3D
:103C000015D0079A544600204FF00A0C214611F8AF
:103C1000013B303B092B4DD9B0B1079214E0A0EB2A
:103C2000080309FA03F313430493A246D2E7039B64
:103C3000191D1B680391002BBBBF5B4242F00202BF
:103C400007930793B8BF049223782E2B0CD1637887
:103C50002A2B34D1039B1A1D1B680392002BB8BF7B
:103C60004FF0FF3302340593DFF8C4A0217803221C
:103C70005046FCF7B5FA38B1049BA0EB0A0040228D
:103C8000824013430134049314F8011B25488DF836
:103C900028100622FCF7A4FA002838D0224B1BBBC0
:103CA000039B073323F0070308330393099B334433
:103CB000099368E70CFB02320C460120A6E70023BB
:103CC0000134059319464FF00A0C204610F8012BD9
:103CD000303A092A03D9002BC6D00591C4E70CFB62
:103CE000012104460123F0E703AB00932A460F4B62
:103CF00004A93846AFF30080421C0646D6D1AB89F2
:103D00005B063FF52DAF09981DB0BDE8F08F03AB02
:103D100000932A46054B04A9384600F079F8EBE7F2
:103D2000944100089E41000800000000853A000808
:103D30009A4100082DE9F047164699468A680B69B2
:103D4000DDF820809342B8BF1346336091F84320DA
:103D500007460C460AB1013333602368990642BF17
:103D6000336802333360256815F0060506D104F187
:103D7000190AE36832689B1AAB4226DC94F84320A8
:103D8000131E226818BF012392062BD404F14302AC
:103D900049463846C04701301ED02368226903F0E7
:103DA0000603042B02BFE5683368ED1AA3680CBF55
:103DB00025EAE57500259342C4BF9B1AED1800263D
:103DC0001A34B5421AD1002008E001235246494670
:103DD0003846C047013003D14FF0FF30BDE8F087CF
:103DE0000135C6E7E1185A1C302081F8430022440F
:103DF00094F8451082F843100233C7E701232246A6
:103E000049463846C0470130E6D00136D9E70000C0
:103E10002DE9FF470F7E0C9D782F914680460C467A
:103E20009A4601F1430207D8622F0AD8002F00F00A
:103E3000D480582F00F0C08004F1420584F842700D
:103E40003AE0A7F16303152BF6D801A151F823F04E
:103E5000A93E0008BD3E0008393E0008393E000872
:103E6000393E0008393E0008BD3E0008393E0008D2
:103E7000393E0008393E0008393E0008C13F0008BD
:103E8000E93E00087B3F0008393E0008393E000843
:103E9000E33F0008393E0008E93E0008393E0008CB
:103EA000393E0008833F00082B681A1D1B682A60F2
:103EB00004F1420584F8423001239FE020682B681A
:103EC000070603F10401296001D51E6803E04606D8
:103ED000FBD5B3F90060002E03DA2D23764284F877
:103EE00043305A480A2312E02B682068191D2960C4
:103EF000050601D51E6802E04106FBD51E88534821
:103F00006F2F0CBF08230A23002184F84310656833
:103F1000A560002DA2BF216821F0040121600EB927
:103F2000002D4BD01546B6FBF3F103FB1167C75DBF
:103F300005F8017D3746BB420E46F4D9082B0BD15C
:103F40002368DE0708D5236961689942DEBF302304
:103F500005F8013C05F1FF35521B2261CDF800A0A8
:103F60004B4603AA21464046FFF7E4FE01304AD102
:103F70004FF0FF3004B0BDE8F087236843F0200322
:103F800023603348782784F84570236829681F0622
:103F900051F8046B02D45F0648BFB6B2DF0748BFD2
:103FA00043F02003296048BF23601EB9236823F033
:103FB000200323601023A7E72448E4E71546BDE764
:103FC0002B6826686169181D286035061B6801D5B5
:103FD000196002E07006FBD51980002323611546A5
:103FE000BCE72B681A1D2A601D68626800212846FC
:103FF000FCF7F6F808B1401B60606368236100239A
:1040000084F84330AAE723692A4649464046D04708
:104010000130ADD023689B0713D4E068039B98421E
:10402000B8BF1846A6E70123324649464046D04766
:1040300001309DD00135E36803995B1AAB42F2DC95
:10404000EBE7002504F11906F5E700BFA5410008DC
:10405000B6410008884210B501EB020402D984423F
:10406000234607D8431EA14208D011F8012B03F8BC
:10407000012FF8E7024401468A4200D110BD13F82F
:10408000014D02F8014DF7E738B5064D002304460F
:1040900008462B60FDF76AF9431C02D12B6803B177
:1040A000236038BDF80200200A44914200F1FF333A
:1040B00000D1704710B511F8014B03F8014F914240
:1040C000F9D110BD2DE9F041804614460E4621B9C4
:1040D000BDE8F0411146FFF749BC2AB9FFF7DAFB0A
:1040E00025462846BDE8F08100F01BF884420746CB
:1040F00002D8B4EB500F12D821464046FFF736FCE9
:1041000005460028EDD0BC422246314628BF3A463B
:10411000FFF7CAFF31464046FFF7BCFBE1E73546F3
:10412000DFE751F8043C181F002BBCBF0B58C01828
:1041300070470000F8B500BFF8BC08BC9E46704749
:0C414000F8B500BFF8BC08BC9E467047F4
:10414C00496E76616C696420636F6D6D616E64207D
:10415C00636F646520726563656976656420667259
:10416C006F6D20686F7374202121200D0A000000F0
:10417C00000000000000000001020304060708090B
:10418C000000000001020304232D302B2000686C7A
:10419C004C0065666745464700303132333435365E
:1041AC003738394142434445460030313233343597
:0C41BC00363738396162636465660000C4
:0841C800E8C0FF7F01000000C8
:0441D000C50100081D
:0441D400A10100083D
:1041D8001011121321141516171918000024F400D1
:1041E800100000000100000000000000C0010020D5
:1041F80028020020900200200000000000000000BB
:1042080000000000000000000000000000000000A6
:104218000000000000000000000000000000000096
:104228000000000000000000000000000000000086
:08423800000000001800002046
:04000005080014E1FA
:00000001FF
