:020000040800F2
:1080000000000120959F0008E59F0008E59F0008FB
:10801000E59F0008E59F0008E59F000800000000BC
:10802000000000000000000000000000E59F0008C4
:10803000E59F000800000000E59F00080D9E000875
:1080400000000000E59F0008E59F0008E59F00088C
:10805000E59F0008E59F000889930008A9930008A0
:10806000C9930008E9930008099400086D9000087E
:1080700099900008C5900008F19000081D91000833
:108080004991000875910008E59F00080000000074
:10809000000000000000000000000000299400081B
:1080A000E59F0008E59F0008E59F0008E59F0008A0
:1080B000E59F0008E59F0008E59F0008E59F000890
:1080C000E59F0008E59F0008E59F0008719D0008F6
:1080D0007F9D0008E59F0008E59F00080000000064
:1080E000DD940008E59F0008E59F000800000000FF
:1080F000000000000000000000000000A191000846
:1081000000000000E59F0008E59F00088D9D000825
:10811000000000000000000000000000000000005F
:10812000CD910008F99100082592000851920008AD
:108130007D92000800000000000000000000000028
:10814000000000000000000000000000E59F0008A3
:10815000A9920008D592000801930008E59F000845
:10816000E59F0008E59F00080000000000000000F7
:1081700000000000000000000000000000000000FF
:1081800000000000000000000000000000000000EF
:04819000E59F00085F
:1081980010B5054C237833B9044B13B10448AFF339
:1081A80000800123237010BD6C0000200000000037
:1081B80030A0000808B5034B1BB103490348AFF3CF
:1081C800008008BD000000007000002030A00008FA
:1081D80070B54FF0FF0C4CF4E06C1CEA11541DBF55
:1081E8001CEA135594EA0C0F95EA0C0F00F0DEF820
:1081F8002C4481EA030621EA4C5123EA4C5350EA05
:10820800013518BF52EA033541F4801143F4801355
:1082180038D0A0FB02CE4FF00005E1FB02E506F0E6
:108228000042E0FB03E54FF00006E1FB03569CF03B
:10823800000F18BF4EF0010EA4F1FF04B6F5007F41
:1082480064F5407404D25FEA4E0E6D4146EB0606B3
:1082580042EAC62141EA55514FEAC52040EA5E503C
:108268004FEACE2EB4F1FD0C88BFBCF5E06F1ED8E6
:10827800BEF1004F08BF5FEA500E50F1000041EB1D
:10828800045170BD06F0004646EA010140EA0200CA
:1082980081EA0301B4EB5C04C2BFD4EB0C0541EAEC
:1082A800045170BD41F480114FF0000E013C00F301
:1082B800AB8014F1360FDEBF002001F0004170BD25
:1082C800C4F10004203C35DA0C341BDC04F114043E
:1082D800C4F1200500FA05F320FA04F001FA05F2CA
:1082E80040EA020001F0004221F0004110EBD37097
:1082F80021FA04F642EB06015EEA430E08BF20EAC3
:10830800D37070BDC4F10C04C4F1200500FA04F365
:1083180020FA05F001FA04F240EA020001F00041F7
:1083280010EBD37041F100015EEA430E08BF20EA6A
:10833800D37070BDC4F1200500FA05F24EEA020EB2
:1083480020FA04F301FA05F243EA020321FA04F0E1
:1083580001F0004121FA04F220EA020000EBD37098
:108368005EEA430E08BF20EAD37070BD94F0000F98
:108378000FD101F00046400041EB010111F4801FCC
:1083880008BF013CF7D041EA060195F0000F18BF7D
:10839800704703F00046520043EB030313F4801FB9
:1083A80008BF013DF7D043EA0603704794EA0C0F73
:1083B8000CEA135518BF95EA0C0F0CD050EA410689
:1083C80018BF52EA4306D1D181EA030101F0004106
:1083D8004FF0000070BD50EA410606BF104619462E
:1083E80052EA430619D094EA0C0F02D150EA01363A
:1083F80013D195EA0C0F05D152EA03361CBF10467B
:1084080019460AD181EA030101F0004141F0FE4119
:1084180041F470014FF0000070BD41F0FE4141F49D
:10842800780170BD81F0004102E000BF83F0004395
:1084380030B54FEA41044FEA430594EA050F08BFF7
:1084480090EA020F1FBF54EA000C55EA020C7FEABB
:10845800645C7FEA655C00F0E2804FEA5454D4EB38
:108468005555B8BF6D420CDD2C4480EA020281EA02
:10847800030382EA000083EA010180EA020281EA3A
:108488000303362D88BF30BD11F0004F4FEA01318C
:108498004FF4801C4CEA113102D0404261EB41019B
:1084A80013F0004F4FEA03334CEA133302D0524221
:1084B80063EB430394EA050F00F0A780A4F10104DD
:1084C800D5F1200E0DDB02FA0EFC22FA05F2801817
:1084D80041F1000103FA0EF2801843FA05F35941FD
:1084E8000EE0A5F120050EF1200E012A03FA0EFC7C
:1084F80028BF4CF0020C43FA05F3C01851EBE371A6
:1085080001F0004507D54FF0000EDCF1000C7EEBC2
:1085180000006EEB0101B1F5801F1BD3B1F5001F00
:108528000CD349085FEA30004FEA3C0C04F101041F
:108538004FEA445212F5800F80F09A80BCF1004F48
:1085480008BF5FEA500C50F1000041EB045141EACA
:10855800050130BD5FEA4C0C404141EB0101013C93
:1085680028BFB1F5801FE9D291F0000F04BF014682
:108578000020B1FA81F308BF2033A3F10B03B3F154
:1085880020020CDA0C3208DD02F1140CC2F10C02E4
:1085980001FA0CF021FA02F10CE002F11402D8BF42
:1085A800C2F1200C01FA02F120FA0CFCDCBF41EA0E
:1085B8000C019040E41AA2BF01EB0451294330BDDD
:1085C8006FEA04041F3C1CDA0C340EDC04F11404BA
:1085D800C4F1200220FA04F001FA02F340EA030091
:1085E80021FA04F345EA030130BDC4F10C04C4F1D7
:1085F800200220FA02F001FA04F340EA03002946B7
:1086080030BD21FA04F0294630BD94F0000F83F400
:10861800801306BF81F480110134013D4EE77FEAE3
:10862800645C18BF7FEA655C29D094EA050F08BF2F
:1086380090EA020F05D054EA000C04BF1946104610
:1086480030BD91EA030F1EBF0021002030BD5FEA54
:10865800545C05D14000494128BF41F0004130BD7C
:1086680014F580043CBF01F5801130BD01F00045D0
:1086780045F0FE4141F470014FF0000030BD7FEA43
:10868800645C1ABF194610467FEA655C1CBF0B463E
:10869800024650EA013406BF52EA033591EA030F55
:1086A80041F4002130BD00BF90F0000F04BF00214D
:1086B800704730B54FF4806404F132044FF0000580
:1086C8004FF0000150E700BF90F0000F04BF0021F9
:1086D800704730B54FF4806404F1320410F000455F
:1086E80048BF40424FF000013EE700BF42004FEA5A
:1086F800E2014FEA31014FEA02701FBF12F07F43D7
:1087080093F07F4F81F06051704732F07F4208BF8D
:10871800704793F07F4F04BF41F40021704730B594
:108728004FF4607401F0004521F000411CE700BFE0
:1087380050EA010208BF704730B54FF000050AE063
:1087480050EA010208BF704730B511F0004502D564
:10875800404261EB41014FF4806404F132045FEA66
:10876800915C3FF4D8AE4FF003025FEADC0C18BF0F
:1087780003325FEADC0C18BF033202EBDC02C2F101
:10878800200300FA03FC20FA02F001FA03FE40EA93
:108798000E0021FA02F11444BDE600BF4A0011D2CE
:1087A80012F5001211D20DD56FF47873B3EB625243
:1087B8000ED44FEAC12343F0004343EA505323FA4F
:1087C80002F070474FF00000704750EA013002D1C4
:1087D8004FF0FF3070474FF00000704780B582B00F
:1087E80000AF03460A46FB711346BB71FB79022BA7
:1087F80010D0022B13DC002B02D0012B05D00EE089
:108808000021002001F0D0F80AE00121002001F049
:10881800CBF805E00221002001F0C6F800E000BF17
:10882800B979FB790122184600F0C0FE00BF08376D
:10883800BD4680BD80B588B000AF78607B6893F88E
:1088480058007B6893F859300122194600F0B0FFB0
:108858007D23FB6102E0FB69013BFB61FB69002BA7
:10886800F9D17B6893F858007B6893F85930002257
:10887800194600F09DFF0123BB6102E0BB69013B83
:10888800BB61BB69002BF9D17B6893F858007B6802
:1088980093F859300122194600F08AFF7D237B6145
:1088A80002E07B69013B7B617B69002BF9D17B6826
:1088B80093F858007B6893F859300022194600F065
:1088C80077FF7D233B6102E03B69013B3B613B69EC
:1088D800002BF9D17B6893F858007B6893F85930DE
:1088E8000122194600F064FF064BFB6002E0FB68BA
:1088F800013BFB60FB68002BF9D100BF00BF2037AC
:10890800BD4680BDF049020080B582B000AF7860F6
:108918000B46FB707B6893F85A007B6893F85B30D2
:108928000022194600F044FF7B68F9784FF47A7208
:10893800184601F081F900BF0837BD4680BD80B5F3
:1089480082B000AF78600B46FB707B6893F85A00E2
:108958007B6893F85B300122194600F029FF7B6899
:10896800F9784FF47A72184601F066F900BF0837B3
:10897800BD4680BD80B584B000AF78607B6893F851
:1089880058207B6893F8593019461046FFF726FFA0
:108998007B6893F85A207B6893F85B301946104639
:1089A800FFF71CFF7B68184601F0FCF87868FFF7B2
:1089B80041FF11217868FFF7A7FF1A4BFB6002E01F
:1089C800FB68013BFB60FB68002BF9D13A21786812
:1089D800FFF79AFF05217868FFF7B1FF2121786832
:1089E800FFF792FF36217868FFF78EFFC02178687D
:1089F800FFF7A5FF7B6893F85C309BB2194678684F
:108A080000F039F929217868FFF77EFF7B6800229A
:108A180083F85D207B68002283F85E2000BF103752
:108A2800BD4680BD6CDC020080B582B000AF7860C6
:108A3800084611461A460346FB700B46BB701346A0
:108A48007B702A217868FFF75FFF00217868FFF7BD
:108A580076FFFB7819467868FFF771FF0021786880
:108A6800FFF76DFFBB7819467868FFF768FF2B2181
:108A78007868FFF749FF00217868FFF760FF7B7887
:108A880019467868FFF75BFF00217868FFF757FF02
:108A98003B7C19467868FFF752FF2C217868FFF76E
:108AA80033FF00BF0837BD4680BD000090B589B0D0
:108AB80002AFF860084611461A4603467B810B460A
:108AC8003B811346FB710023FB820023BB820023FA
:108AD8007B827B895A1C1346DB0013445B00A02B66
:108AE80000F384803B895A1C13469B0013445B00A7
:108AF8001344802B7ADC3B890133DBB21A4692009F
:108B08001A4452001344DAB2FB6883F85E203B89AA
:108B1800DBB21A4692001A4452001344D9B23B8978
:108B28000133DBB21A4692001A4452001344DBB2F6
:108B3800013BDAB27B89DBB21846C00003445B0014
:108B4800D8B27B890133DBB21C46E40023445B00C6
:108B5800DBB2013BDBB200930346F868FFF764FF22
:108B68000023FB823EE0FB79A3F120021346DB00E1
:108B780013445B001A46FB8A13441E4A32F813302A
:108B88007B820023BB8227E07A8ABB8A02FA03F33E
:108B980003F40043002B0ED03B8D1B0A9BB2DBB2C3
:108BA8001946F868FFF7CBFE3B8DDBB21946F8682B
:108BB800FFF7C5FE0DE0BB8D1B0A9BB2DBB2194661
:108BC800F868FFF7BCFEBB8DDBB21946F868FFF703
:108BD800B6FEBB8A0133BB82BB8A0A2BD4D9FB8A77
:108BE8000133FB82FB8A112BBDD900E000BF1C3783
:108BF800BD4690BD6CA0000880B588B002AFF86093
:108C08007B600B467B8113463B817B89FB753B89E7
:108C1800BB7526E0BB7D752B0CD90023BB75FB7D8E
:108C28000133FB757B681B78202B03D17B680133EC
:108C38007B6016E0FB7D8E2B18D8FB7D99B2BB7D3F
:108C48009AB27B681878BB8C01933B8C00930346DF
:108C5800F868FFF72BFFBB7D0133BB757B680133D9
:108C68007B607B681B78002BD4D100E000BF00BF7D
:108C78001837BD4680BD80B586B002AF78600B4618
:108C88007B800023FB810023BB817B881B0A9BB26E
:108C9800DBB23B727B88DBB27B729F23009300239D
:108CA8007F2200217868FFF7BFFE7B6893F85A009F
:108CB8007B6893F85B300122194600F079FD0023A8
:108CC800FB8112E00023BB8109E07B6807F1080102
:108CD8000222184601F016F8BB890133BB81BB8913
:108CE8007F2BF2D9FB890133FB81FB899F2BE9D9C3
:108CF80000BF00BF1037BD4680BD80B582B000AF51
:108D080078607B68002283F85E207B68002283F805
:108D18005D207B6893F85C309BB219467868FFF752
:108D2800AAFF00BF0837BD4680BD80B483B000AF3E
:108D380078607B685B68002B08D17B681B689A6841
:108D48007B681B6842F020029A6059E07B685B6888
:108D5800012B08D17B681B689A687B681B6842F402
:108D680000629A604CE07B685B68022B08D17B68E4
:108D78001B689A687B681B6842F400129A603FE09F
:108D88007B685B68032B08D17B681B689A687B68E3
:108D98001B6842F000629A6032E07B685B68042BD3
:108DA80008D17B681B68DA687B681B6842F0200280
:108DB800DA6025E07B685B68052B08D17B681B6857
:108DC800DA687B681B6842F40062DA6018E07B6846
:108DD8005B68062B08D17B681B68DA687B681B68B0
:108DE80042F40012DA600BE07B685B68072B07D15E
:108DF8007B681B68DA687B681B6842F00062DA608F
:108E080000BF0C37BD465DF8047B704780B582B063
:108E180000AF78607B681B68334A93421CD17B683B
:108E28005B68062B09D87B685B68DBB20B33DBB267
:108E38005BB2184600F022FD06E07B685B68072BF2
:108E480002D12F2000F01AFD7B685B687A68526AAD
:108E5800264941F823202AE07B681B68244A93426C
:108E680025D17B685B68042B09D87B685B68DBB21B
:108E78003833DBB25BB2184600F000FD10E07B68C7
:108E88005B68042B0CD97B685B68072B08D87B6868
:108E98005B68DBB24433DBB25BB2184600F0EEFC31
:108EA8007B685B687A68526A124941F823207B68BC
:108EB80019687B685A6813465B001344DB000B444F
:108EC80010331B687A6810687A68526843F010019A
:108ED80013465B001344DB0003441033196000BFE2
:108EE8000837BD4680BD00BF0060024088000020F2
:108EF80000640240A800002080B582B000AF78600E
:108F08007B681B68244A934204D11521002000F095
:108F18004BFD08E07B681B68204A934203D1162169
:108F2800002000F041FD7B6819687B685A68134689
:108F38005B001344DB000B44103300221A6078688E
:108F4800FFF7F3FE7B689A687B68DB681A437B68E7
:108F58001B691A437B685B691A437B689B6942EA11
:108F680003017B68DB697A6810687A68526819437C
:108F780013465B001344DB000344103319607B681D
:108F880093F82030012B02D17868FFF73FFF00BF2C
:108F98000837BD4680BD00BF006002400064024043
:108FA80080B485B000AFF860B9607A603B60FB6858
:108FB8001968FB685A6813465B001344DB000B44CE
:108FC80010331B68FA681068FA68526823F00101C8
:108FD80013465B001344DB00034410331960FB683D
:108FE8001968FB685A6813465B001344DB000B449E
:108FF80014333A681A60FB681868FB685B68B968DC
:109008005A1C13465B001344DB0003441960FB68D9
:109018001868FB685B6879685A1C13465B00134440
:10902800DB00034404331960FB681968FB685A685D
:1090380013465B001344DB000B4410331B68FA68CB
:109048001068FA68526843F0010113465B00134444
:10905800DB0003441033196000BF1437BD465DF8C8
:10906800047B704780B500AF074B9B68064A43F006
:1090780020039360054B1B68002B02D0034B1B6831
:10908800984700BF80BD00BF0060024088000020F4
:1090980080B500AF074B9B68064A43F400639360B2
:1090A800054B5B68002B02D0034B5B68984700BFF9
:1090B80080BD00BF006002408800002080B500AF7E
:1090C800074B9B68064A43F400139360054B9B6863
:1090D800002B02D0034B9B68984700BF80BD00BFA0
:1090E800006002408800002080B500AF074B9B68F5
:1090F800064A43F000639360054BDB68002B02D0FF
:10910800034BDB68984700BF80BD00BF006002408A
:109118008800002080B500AF074BDB68064A43F0A3
:109128002003D360054B1B69002B02D0034B1B693E
:10913800984700BF80BD00BF006002408800002043
:1091480080B500AF074BDB68064A43F40063D36081
:10915800054B5B69002B02D0034B5B69984700BF46
:1091680080BD00BF006002408800002080B500AFCD
:10917800074BDB68064A43F40013D360054B9B6931
:10918800002B02D0034B9B69984700BF80BD00BFEE
:10919800006002408800002080B500AF074BDB6804
:1091A800064A43F00063D360054BDB69002B02D00D
:1091B800034BDB69984700BF80BD00BF00600240D9
:1091C8008800002080B500AF074B9B68064A43F033
:1091D80020039360054B1B68002B02D0034B1B68D0
:1091E800984700BF80BD00BF00640240A80000206F
:1091F80080B500AF074B9B68064A43F40063936051
:10920800054B5B68002B02D0034B5B68984700BF97
:1092180080BD00BF00640240A800002080B500AFF8
:10922800074B9B68064A43F400139360054B9B6801
:10923800002B02D0034B9B68984700BF80BD00BF3E
:1092480000640240A800002080B500AF074B9B686F
:10925800064A43F000639360054BDB68002B02D09D
:10926800034BDB68984700BF80BD00BF0064024025
:10927800A800002080B500AF074BDB68064A43F022
:109288002003D360054B1B69002B02D0034B1B69DD
:10929800984700BF80BD00BF00640240A8000020BE
:1092A80080B500AF074BDB68064A43F40063D36020
:1092B800054B5B69002B02D0034B5B69984700BFE5
:1092C80080BD00BF00640240A800002080B500AF48
:1092D800074BDB68064A43F40013D360054B9B69D0
:1092E800002B02D0034B9B69984700BF80BD00BF8D
:1092F80000640240A800002080B500AF074BDB687F
:10930800064A43F00063D360054BDB69002B02D0AB
:10931800034BDB69984700BF80BD00BF0064024073
:10932800A800002080B483B000AF0346FB71084B4F
:109338005B69FA79012101FA02F21146044A0B43EA
:10934800536100BF0C37BD465DF8047B704700BF12
:10935800003C014080B483B000AF0346FB71074B6B
:109368005A69FB7922FA03F3DBB203F00103DBB29B
:1093780018460C37BD465DF8047B7047003C014039
:1093880080B500AF054B1B68002B02D0034B1B6850
:1093980098470020FFF7C6FF00BF80BDC800002027
:1093A80080B500AF054B5B68002B02D0034B5B68B0
:1093B80098470120FFF7B6FF00BF80BDC800002016
:1093C80080B500AF054B9B68002B02D0034B9B6810
:1093D80098470220FFF7A6FF00BF80BDC800002005
:1093E80080B500AF054BDB68002B02D0034BDB6870
:1093F80098470320FFF796FF00BF80BDC8000020F4
:1094080080B500AF054B1B69002B02D0034B1B69CD
:1094180098470420FFF786FF00BF80BDC8000020E2
:1094280080B500AF0520FFF795FF0346002B0AD053
:10943800274B5B69002B02D0254B5B6998470520B9
:10944800FFF770FF42E00620FFF784FF0346002B7A
:109458000AD01F4B9B69002B02D01D4B9B69984774
:109468000620FFF75FFF31E00720FFF773FF034691
:10947800002B0AD0164BDB69002B02D0144BDB699A
:1094880098470720FFF74EFF20E00820FFF762FF0C
:109498000346002B0AD00E4B1B6A002B02D00C4B44
:1094A8001B6A98470820FFF73DFF0FE00920FFF7E8
:1094B80051FF0346002B09D0054B5B6A002B02D0F5
:1094C800034B5B6A98470920FFF72CFF00BF80BD5C
:1094D800C800002080B500AF0A20FFF73BFF034615
:1094E800002B0AD0304B9B6A002B02D02E4B9B6A74
:1094F80098470A20FFF716FF53E00B20FFF72AFFD3
:109508000346002B0AD0284BDB6A002B02D0264BDF
:10951800DB6A98470B20FFF705FF42E00C20FFF7B6
:1095280019FF0346002B0AD01F4B1B6B002B02D0E0
:109538001D4B1B6B98470C20FFF7F4FE31E00D2004
:10954800FFF708FF0346002B0AD0174B5B6B002B75
:1095580002D0154B5B6B98470D20FFF7E3FE20E028
:109568000E20FFF7F7FE0346002B0AD00E4B9B6B2D
:10957800002B02D00C4B9B6B98470E20FFF7D2FEB6
:109588000FE00F20FFF7E6FE0346002B09D0064B3D
:10959800DB6B002B02D0044BDB6B98470F20FFF7E7
:1095A800C1FE00BF80BD00BFC800002080B483B0EA
:1095B80000AF0346FB710B46BB7113467B71FB7909
:1095C800022B2CD0022B3DDC002B02D0012B13D018
:1095D80038E0204B1B68BA795200032101FA02F2E5
:1095E800D24313407979BA79520001FA02F211464E
:1095F800184A0B43136026E0174B1B68BA795200D0
:10960800032101FA02F2D24313407979BA79520060
:1096180001FA02F21146104A0B43136013E00F4B94
:109628001B68BA795200032101FA02F2D2431340AF
:109638007979BA79520001FA02F21146074A0B43C6
:10964800136000E000BF00BF0C37BD465DF8047B27
:10965800704700BF000002400004024000080240BA
:1096680080B483B000AF0346FB710B46BB71134651
:109678007B71FB79022B5DD0022B00F38680002BD7
:1096880002D0012B2BD080E0BB79072B12D8424B9C
:109698001B68BA7992000F2101FA02F2D2431340F3
:1096A8007979BA79920001FA02F211463A4A0B43E3
:1096B80013606BE0394B1B68BA79083A92000F21A6
:1096C80001FA02F2D24313407979BA79083A920042
:1096D80001FA02F21146314A0B43136056E0BB7996
:1096E800072B12D82E4B1B68BA7992000F2101FA6A
:1096F80002F2D24313407979BA79920001FA02F260
:109708001146274A0B43136040E0264B1B68BA7981
:10971800083A92000F2101FA02F2D24313407979F4
:10972800BA79083A920001FA02F211461D4A0B432F
:1097380013602BE0BB79072B12D81B4B1B68BA7937
:1097480092000F2101FA02F2D24313407979BA79D3
:10975800920001FA02F21146134A0B43136015E016
:10976800124B1B68BA79083A92000F2101FA02F2EB
:10977800D24313407979BA79083A920001FA02F291
:1097880011460A4A0B43136000E000BF00BF0C37C4
:10979800BD465DF8047B704720000240240002406B
:1097A8002004024024040240200802402408024009
:1097B80080B483B000AF0346FB710B46BB71134600
:1097C8007B71FB79022B2CD0022B3DDC002B02D0C5
:1097D800012B13D038E07B79012B05D1BB7901220D
:1097E8009A40204B1A6031E07B79002B2ED1BB794F
:1097F8004FF480329A401B4B1A6027E07B79012B8B
:1098080005D1BB7901229A40174B1A6020E07B7979
:10981800002B1DD1BB794FF480329A40124B1A604D
:1098280016E07B79012B05D1BB7901229A400F4BB9
:109838001A600FE07B79002B0CD1BB794FF4803292
:109848009A400A4B1A6005E000BF04E000BF02E03E
:1098580000BF00E000BF00BF0C37BD465DF8047BC9
:10986800704700BF18000240180402401808024060
:1098780080B500AF00F0D8F800BF80BD80B483B0D9
:1098880000AF0346FB7197F90730002B0BDBFB7920
:1098980003F01F02074997F907305B09012000FA16
:1098A80002F241F8232000BF0C37BD465DF8047B67
:1098B800704700BF00E100E080B400AF144B1B68A4
:1098C800134A43F480331360114B1B68104A23F08A
:1098D800010313600E4B1B680D4A23F0807313605D
:1098E80000BF0B4B1B6803F40033002BF9D0094B66
:1098F8001B68084A43F001031360064B1B68054ABE
:1099080023F00203136000BFBD465DF8047B704777
:10991800003802400838024080B400AF074B1B688B
:10992800064A23F0F0031360044B044A1B681360D3
:1099380000BFBD465DF8047B704700BF0838024091
:1099480080B400AF074B1B68064A23F4E05313604A
:10995800044B044A1B68136000BFBD465DF8047BD6
:10996800704700BF0838024080B400AF074B1B683F
:10997800064A23F460431360044B044A1B681360CF
:1099880000BFBD465DF8047B704700BF0838024041
:1099980080B500AFFFF790FFFFF7BEFFFFF7D0FFDE
:1099A800FFF7E2FF00BF80BD80B483B000AF03467D
:1099B8000A46FB711346BB71FB79022B1CD0022BA4
:1099C80025DC002B02D0012B0BD020E0134B1B68A9
:1099D800BA79012101FA02F21146104A0B431360C9
:1099E80016E00F4B1B68BA79012101FA02F2114601
:1099F8000B4A0B4313600BE00A4B1B68BA79012131
:109A080001FA02F21146074A0B43136000E000BF57
:109A180000BF0C37BD465DF8047B70473038024004
:109A2800403802404438024080B483B000AF00237D
:109A38007B6005233B600D4BDB687B607A684FF6E3
:109A4800FF0313407B603B681A027B68134343F0B3
:109A5800BF6343F400337B60044A7B68D36000BF74
:109A68000C37BD465DF8047B704700BF00ED00E091
:109A780080B582B000AF78607B681B78022B42D03B
:109A8800022B5DDC002B02D0012B23D058E00021F3
:109A98000020FFF789FF022204210020FFF786FD3E
:109AA800052204210020FFF7DBFD0222052100200A
:109AB800FFF77CFD052205210020FFF7D1FD0222DA
:109AC80007210020FFF772FD052207210020FFF77C
:109AD800C7FD35E001210020FFF766FF02220A21B9
:109AE8000120FFF763FD05220A210120FFF7B8FDD9
:109AF80002220F210120FFF759FD05220F21012025
:109B0800FFF7AEFD1CE000210020FFF74DFF01210B
:109B18000020FFF749FF022203210120FFF746FD3D
:109B2800062203210120FFF79BFD022205210120C7
:109B3800FFF73CFD062205210120FFF791FD00BF3C
:109B480000BF0837BD4680BD80B400AF034B01227B
:109B58001A7000BFBD465DF8047B704708010020FD
:109B680080B582B000AF78607B681B78022B10D07C
:109B7800022B13DC002B02D0012B05D00EE00C21A8
:109B88000220FFF711FF09E00E210120FFF70CFF6B
:109B980004E00F210120FFF707FF00BF00BF0837CF
:109BA800BD4680BD80B582B000AF78607868FFF7A9
:109BB8005FFF7868FFF7D4FF7B685A787B689B78EB
:109BC8001343DAB27B68DB781343DAB27B681B791C
:109BD8001343DAB27B685B791343DAB27B681B788C
:109BE8001946144B53F821301A607B681B781A46C3
:109BF800104B53F822305A687B681B7819460D4B76
:109C080053F8213042F004025A607B681B781A46E8
:109C1800084B53F822301A687B681B781946054BA5
:109C280053F8213042F040021A6000BF0837BD46A1
:109C380080BD00BF6000002080B586B000AFF8602E
:109C48000B467A60FB720023FB750023BB752A491B
:109C5800786800F0EDF800BFFB681B781A46274BC0
:109C680053F822309B685B0803F00103012B03D0F3
:109C7800234B1B78012BEFD1214B1B78012B05D1EE
:109C88000223FB751E4B00221A7030E01A497868CF
:109C980000F0CEF8FB681B781A46184B53F82230B0
:109CA800FA7ADA6000BFFB681B781A46134B53F840
:109CB80022309B68DB0903F00103012B03D1104B11
:109CC8001B78012BEFD10E4B1B78012B05D10223FA
:109CD800FB750B4B00221A7009E000F077F8FB685F
:109CE8001B781A46054B53F82230DB68BB75FB7DA1
:109CF80018461837BD4680BD519B000860000020FB
:109D08000801002080B584B000AFF860B960134640
:109D1800FB80FB6808331846FFF7EEF8FB6803F191
:109D28000800FB681B781A460E4B53F8223003F1E3
:109D38000C01FB88BA68FFF733F9FB681B781A46F1
:109D4800084B53F822305A68FB681B781946054BB4
:109D580053F8213042F002025A6000BF1037BD4666
:109D680080BD00BF6000002080B400AF00BFBD46CA
:109D78005DF8047B704780B400AF00BFBD465DF856
:109D8800047B704780B400AF00BFBD465DF8047B1C
:109D98007047000080B400AF0B4B1B680A4A23F0E1
:109DA80004031360084B1B68074A23F0020313607F
:109DB800054B1B68044A43F00103136000BFBD460E
:109DC8005DF8047B704700BF10E000E080B400AF8E
:109DD8000B4B1B680A4A23F001031360084B00224F
:109DE8005A60074B00229A60054B1B68044A23F00F
:109DF8000203136000BFBD465DF8047B704700BFD7
:109E080010E000E080B500AF074B1B78DBB2002BF9
:109E180001D1FFF7DBFF054B1B68002B02D0034B7A
:109E28001B68984700BF80BD100100200C0100206E
:109E380080B584B000AF786039600023FB603B6870
:109E4800002B2ED07868FEF72FFC1CA3D3E9002343
:109E5800FEF7BEF902460B4610461946FEF79EFC71
:109E68000346FB60FB68B3F1807F02D36FF07F434A
:109E7800FB600F4AFB6853600D4B00229A600D4A45
:109E88003B6813600C4B00221A70094B1B68084A88
:109E980043F002031360064B1B68054A43F00103B5
:109EA800136000BF1037BD4680BD00BFAFF3008010
:109EB80010E000E00C01002010010020000000006C
:109EC800006AA84080B586B002AF2248FEF752FD6E
:109ED8004FF6FF7301931F2300931F4B00220021AD
:109EE8001C48FEF789FE1D4BFB6002E0FB68013B46
:109EF800FB60FB68002BF9D14FF6FF7301934FF419
:109F080078430093164B002201211248FEF774FE95
:109F1800124BBB6002E0BB68013BBB60BB68002B17
:109F2800F9D14FF6FF7301934FF4FC6300930D4B87
:109F3800002204210748FEF75FFE084B7B6002E021
:109F48007B68013B7B607B68002BF9D10148FEF7F9
:109F5800D4FEBDE70000002048A00008105E5F00A6
:109F680054A0000860A0000880B500AF054B064A61
:109F78009A60FFF70DFDFFF70DFFFFF779FC00BFB3
:109F880080BD00BF00ED00E0008000080D48854658
:109F9800FFF7EAFF0C480D490D4A002302E0D458A8
:109FA800C4500433C4188C42F9D30A4A0A4C00231B
:109FB80001E013600432A242FBD300F011F8FFF76E
:109FC80081FFFEE700000120000000206C00002057
:109FD800D0AD00086C00002014010020FEE700004E
:109FE80070B50D4D0D4C641BA4100026A64209D176
:109FF8000B4D0C4C00F018F8641BA4100026A64268
:10A0080005D170BD55F8043B98470136EEE755F881
:10A01800043B98470136F2E7C8AD0008C8AD000810
:10A02800C8AD0008CCAD0008F8B500BFF8BC08BC46
:10A038009E467047F8B500BFF8BC08BC9E467047FE
:10A0480048454C4C4F20494D54000000544654207C
:10A058004472697665720000436F6D706C65746553
:10A068006400000000000000000000000000000084
:10A0780000000000000000000000000000000000D8
:10A0880000000000000000000000000C000C000CA4
:10A09800000C000C000C000C000C000C000C000C58
:10A0A8000000000C000C0000000000000000001B75
:10A0B800001B001B001B001B00000000000000002C
:10A0C8000000000000000000000000000000000088
:10A0D80000008019801980198019C07FC07F8019FD
:10A0E8000033C07FC07F00330033003300330000EB
:10A0F800000000000000001E003F807580650074AD
:10A10800003C001E00078005806580658075003F63
:10A11800001E0004000400000000007000D840D8B1
:10A12800C0D880D900730006000C801BC036C066FA
:10A13800C046C00680030000000000000000001EAA
:10A14800003F003300330033001E000CC03CC066E3
:10A15800806380618063C03E801C000000000000B6
:10A168000000000C000C000C000C000C00000000AB
:10A1780000000000000000000000000000000000D7
:10A188000000000080000001000300060006000433
:10A19800000C000C000C000C000C000C0004000665
:10A1A8000006000300018000002000100018000CC9
:10A1B800000C000400060006000600060006000663
:10A1C8000004000C000C0018001000200000000C17
:10A1D800002D003F001E00330000000000000000BA
:10A1E8000000000000000000000000000000000067
:10A1F800000000000000000C000C000C000CC0FF68
:10A20800C0FF000C000C000C000C00000000000057
:10A218000000000000000000000000000000000036
:10A228000000000000000000000000000000000C1A
:10A23800000C0004000400080000000000000000FA
:10A2480000000000000000000000001E001E0000CA
:10A2580000000000000000000000000000000000F6
:10A2680000000000000000000000000000000000E6
:10A27800000000000000000C000C000000000000BE
:10A2880000000003000300030006000600060006A5
:10A29800000C000C000C000C00180018001800003E
:10A2A800000000000000001E003F00338061806154
:10A2B8008061806D806D8061806180610033003FC6
:10A2C800001E00000000000000000006000E001E36
:10A2D80000360026000600060006000600060006F6
:10A2E8000006000600060000000000000000001E36
:10A2F800003F807380618061800100030006000CCC
:10A30800001800300060807F807F0000000000009F
:10A318000000001C003E006300630003000E000EF6
:10A3280000038001800180618073003F001E0000EF
:10A338000000000000000006000E000E001E001EB7
:10A348000016003600360066807F807F0006000613
:10A3580000060000000000000000007F007F006091
:10A3680000600060006E007F806380018001806172
:10A378008073003F001E0000000000000000001E67
:10A38800003F803380610060006E007F80738061D1
:10A39800806180618033003F001E000000000000E3
:10A3A8000000807F807F8001000300030006000614
:10A3B800000C000C000C0008001800180018000021
:10A3C800000000000000001E003F80638061806183
:10A3D8000021001E003F8061806180618061003F34
:10A3E800001E0000000000000000001E003F007377
:10A3F8008061806180618073803F801D8001806101
:10A408000073003F001E0000000000000000000074
:10A41800000000000000000C000C0000000000001C
:10A42800000000000000000C000C0000000000000C
:10A43800000000000000000000000000000C000CFC
:10A4480000000000000000000000000C000C0004E8
:10A4580000040008000000000000000080008003E5
:10A46800000E003800600038000E800380000000F5
:10A4780000000000000000000000000000000000D4
:10A488000000807F807F00000000807F807F0000C8
:10A4980000000000000000000000000000000000B4
:10A4A8000000000000400070001C00078001000749
:10A4B800001C0070004000000000000000000000C8
:10A4C8000000001F803FC071C060C000C001800351
:10A4D8000007000E000C000C0000000C000C00002F
:10A4E800000000000000001E003F80318071806382
:10A4F800806F806D806D806F806700600032003EE5
:10A50800001C0000000000000000000E000E001BF0
:10A51800001B001B001B80318031803F803F803151
:10A52800C060C060C0600000000000000000007C47
:10A53800007E0063006300630063007E007E0063AA
:10A54800806180618063007F007E00000000000061
:10A558000000001E003F80318061006000600060E4
:10A5680000600060006080618031003F001E0000D4
:10A57800000000000000007C007F006380638061B1
:10A588008061806180618061806100630063007E1A
:10A59800007C0000000000000000807F807F0060D9
:10A5A800006000600060007F007F00600060006065
:10A5B8000060807F807F0000000000000000807F36
:10A5C800807F0060006000600060007F007F0060A6
:10A5D8000060006000600060006000000000000093
:10A5E8000000001E003F8031806100600060006054
:10A5F80080638063806180618031803F001E00003D
:10A6080000000000000080618061806180618061DD
:10A618008061807F807F80618061806180618061EE
:10A6280080610000000000000000003F003F000CB7
:10A63800000C000C000C000C000C000C000C000CB2
:10A64800000C003F003F00000000000000008001F7
:10A6580080018001800180018001800180018001EA
:10A66800806180618073003F001E000000000000D0
:10A678000000C0608061006300660066006C0078BE
:10A68800007C00660066006380618061C060000035
:10A6980000000000000000600060006000600060D2
:10A6A8000060006000600060006000600060807F03
:10A6B800807F0000000000000000C071C071C07BF6
:10A6C800C07AC06AC06AC06EC064C060C060C06042
:10A6D800C060C060C0600000000000000000807121
:10A6E8008071807980798079806D806D806D8065DA
:10A6F80080678067806780638063000000000000D7
:10A708000000001E003F003380618061806180612D
:10A7180080618061806180610033003F001E00001D
:10A72800000000000000007E007F8063806180617F
:10A7380080618063007F007E0060006000600060D0
:10A7480000600000000000000000001E003F003311
:10A7580080618061806180618061806180658067DF
:10A768000033803F401E0000000000000000007E13
:10A77800007F8063806180618063007F007E006667
:10A788000063006380618061C06000000000000019
:10A798000000000E001F8031803100300038001E9C
:10A7A80000078003806180618031003F001E000047
:10A7B800000000000000C0FFC0FF000C000C000CEF
:10A7C800000C000C000C000C000C000C000C000C21
:10A7D800000C0000000000000000806180618061C2
:10A7E8008061806180618061806180618061806159
:10A7F8008073003F001E0000000000000000C060E1
:10A80800C060C060803180318031001B001B001B9C
:10A81800001B000E000E000E0004000000000000E7
:10A828000000C0C0C0C0C0C0C0C0C0C0C0CC804C48
:10A83800804C805E8052805280738061806100000D
:10A84800000000000000C0C0806080610033003B51
:10A85800001E000C000C001E001F003B8071806170
:10A86800C0C00000000000000000C0C0806180611E
:10A8780000330033001E001E000C000C000C000CFE
:10A88800000C000C000C0000000000000000803FDD
:10A89800803F8001000300030006000C000C001834
:10A8A800001800300060807F807F000000000000FA
:10A8B800000F000F000C000C000C000C000C000C2A
:10A8C800000C000C000C000C000C000C000C000C20
:10A8D800000F000F0000001800180018000C000CF2
:10A8E800000C000C0006000600060006000300032A
:10A8F8000003000000000000001E001E0006000605
:10A90800000600060006000600060006000600060F
:10A918000006000600060006001E001E0000000CCF
:10A92800000C001E001200330033806180610000BB
:10A93800000000000000000000000000000000000F
:10A9480000000000000000000000000000000000FF
:10A9580000000000000000000000000000000000EF
:10A96800E0FF0000000000380018000C00000000A4
:10A9780000000000000000000000000000000000CF
:10A9880000000000000000000000000000000000BF
:10A998000000001F803F80618001801F803F806130
:10A9A8008063807FC0380000000000000000006065
:10A9B800006000600060006E007F807380618061CD
:10A9C800806180618073007F006E000000000000DD
:10A9D80000000000000000000000001E003F80731F
:10A9E80080610060006080618073003F001E00008D
:10A9F8000000000000008001800180018001801DAE
:10AA0800803F807380618061806180618073803F56
:10AA1800801D000000000000000000000000000091
:10AA28000000001E003F00738061807F807F00600F
:10AA38008071003F001E0000000000000000C007F9
:10AA4800C00F000C000C807F807F000C000C000CF5
:10AA5800000C000C000C000C000C000000000000B2
:10AA68000000000000000000801D803F80738061AE
:10AA78008061806180618073803F801D8001806378
:10AA8800007F003E00000060006000600060006F12
:10AA9800807F807180618061806180618061806178
:10AAA80080610000000000000000000600060000B1
:10AAB8000000003E003E00060006000600060006F4
:10AAC8000006000600060000000000000006000660
:10AAD80000000000003E003E0006000600060006DA
:10AAE800000600060006000600060046007E003C40
:10AAF8000000006000600060006080610063006624
:10AB0800006C007C0076006300638061C060000018
:10AB1800000000000000003E003E0006000600069F
:10AB280000060006000600060006000600060006ED
:10AB38000006000000000000000000000000000007
:10AB4800000080DDC0FFC0CEC0CCC0CCC0CCC0CC23
:10AB5800C0CCC0CCC0CC0000000000000000000049
:10AB6800000000000000006F807F807180618061BC
:10AB78008061806180618061806100000000000068
:10AB880000000000000000000000001E003F80736D
:10AB980080618061806180618073003F001E0000D9
:10ABA800000000000000000000000000006E007FB0
:10ABB800807380618061806180618073007F006E36
:10ABC80000600060006000600000000000000000FD
:10ABD800801D803F807380618061806180618073A7
:10ABE800803F801D800180018001800100000000FD
:10ABF8000000000000000067803F0039003000308E
:10AC0800003000300030003000300000000000004C
:10AC180000000000000000000000001E803F80616E
:10AC28000060007F803F80018061007F001E00007F
:10AC38000000000000000000000800180018007F55
:10AC4800007F001800180018001800180018801F4E
:10AC5800800F00000000000000000000000000005D
:10AC680000008061806180618061806180618061B5
:10AC78008063807F803D000000000000000000002D
:10AC8800000000000000C060803180318031001B6E
:10AC9800001B001B000E000E000600000000000054
:10ACA8000000000000000000000080DD80DD80DD85
:10ACB800005500550055007700770022002200005B
:10ACC800000000000000000000000000000080619B
:10ACD80000330033001E000C000C001E003300334C
:10ACE800806100000000000000000000000000007B
:10ACF80080618061803100330033001B001B001B22
:10AD0800000E000E000E001C007C00700000000009
:10AD1800000000000000C07FC07F80010003000623
:10AD2800000C00180030C07FC07F00000000000049
:10AD38008003800700060006000600060006000ED5
:10AD4800001C001C000E0006000600060006000697
:10AD580080078003000600060006000600060006BD
:10AD680000060006000600060006000600060006AB
:10AD780000060006000600060038003C000C000C27
:10AD8800000C000C000C000E00070007000E000C61
:10AD9800000C000C000C000C003C00380000000007
:10ADA800000000000000000000008038807F00479D
:10ADB800000000000000000000000000000000008B
:04ADC800BD81000841
:04ADCC009981000861
:10ADD00000040000001000000064024003000000B6
:10ADE0000000000640000000000000000004000019
:10ADF0000000000000000000000000000000000053
:10AE00000000000000000000000000000000000042
:10AE10000000000000000000000000000000000032
:10AE2000000000000000000000030002000000001D
:0CAE30000030014000380040003C0040B1
:0400000508009F95BB
:00000001FF
